:020000040000FA
:0400000061EF09F0B3
:1008000000456C206461746F20656E7465726F20A2
:10081000616C6D6163656E61646F2065733A20255C
:05082000640A0D000058
:100826001FC037F020C038F021C039F022C03AF09E
:1008360023C03BF024C03CF025C03DF026C03EF06E
:100846003EAE02D0010E01D0000E356E366A35502E
:100856003610D8B410D03E1E3D1E3C1E3B1E3A1E1E
:10086600391E381E376C000E382239223A223B22B6
:100876003C223D223E22000165AF669365BF05D04E
:10088600655108E16405D8B005D0000E326E010E40
:10089600316E04D064C031F065C032F062C033F00E
:1008A60063C034F035503610D8A402D066A503D004
:1008B6003306D8A03406000E406E1F0E3F6E000EA3
:1008C600876F7CD03F06D8A04006680E3F24D96EBD
:1008D600000E4020DA6E37C001F038C002F039C091
:1008E60003F03AC004F03BC005F03CC006F03DC042
:1008F60007F03EC008F00A0E096E000E0A6E000EE2
:100906000B6E000E0C6E000E0D6E000E0E6E000EBF
:100916000F6E000E106E9BEC06F001C027F002C0B1
:1009260028F003C029F004C02AF005C02BF006C049
:100936002CF007C02DF008C02EF027C013F029C0F8
:1009460014F0CDEC08F01350300FDF6E3106D8A04E
:1009560032063306D8A0340637C001F038C002F09C
:1009660039C003F03AC004F03BC005F03CC006F0C5
:100976003DC007F03EC008F00A0E096E000E0A6E72
:10098600000E0B6E000E0C6E000E0D6E000E0E6E3F
:10099600000E0F6E000E106EF7EC05F001C037F07A
:1009A60002C038F003C039F004C03AF005C03BF08D
:1009B60006C03CF007C03DF008C03EF040BE20D067
:1009C600405003E13F04D8A01BD0375038103910EF
:1009D6003A103B103C103D103E10D8A473D732BEDF
:1009E60005D0325002E13104D8B06CD734BE08D0FD
:1009F600345003E13304D8A003D0000166B362D7B4
:100A060035503610D8A403D0000166A517D03F068E
:100A1600D8A0400635503610D8A404D0000E306E4B
:100A26002B0E03D0000E306E2D0E2F6E680E3F2457
:100A3600D96E000E4020DA6E2FC0DFFF1DC012F007
:100A46001EC013F0680E3F24146E000E4020156E73
:100A560033C016F034C017F07AEC07F012C01DF060
:100A660013C01EF0120043C0D9FF44C0DAFFDECF28
:100A7600F6FFDDCFF7FF0800F550250AD8A49AD077
:100A860043C0D9FF44C0DAFFDE2A000EDD22000E85
:100A96000001636F000E626F62C066F063C067F0AC
:100AA6006469656943C0D9FF44C0DAFFDECFF6FF4B
:100AB600DDCFF7FF0800F550640AD8B40DD043C067
:100AC600D9FF44C0DAFFDECFF6FFDDCFF7FF08001F
:100AD600F550690AD8A43FD043C0D9FF44C0DAFF15
:100AE600DE2A000EDD2245C0D9FF46C0DAFFDFCF81
:100AF60047F0020EDE26DFCF48F0000EDD2247C0AB
:100B0600D9FF48C0DAFFDECF49F0DDCF4AF0000E4C
:100B16004ABEFF0E4B6E4C6E4D6E4E6E4F6E506E55
:100B260041C01DF042C01EF049C01FF04AC020F06F
:100B36004BC021F04CC022F04DC023F04EC024F033
:100B46004FC025F050C026F013EC04F01DC041F054
:100B56001EC042F0120043C0D9FF44C0DAFFDECF08
:100B6600F6FFDDCFF7FF0800F550250AD8A416D00A
:100B760043C0D9FF44C0DAFFDE2A000EDD22000E94
:100B8600036E250E026E41C004F042C005F008EC6B
:100B960008F0000E426E010E416E120043C0D9FFEE
:100BA60044C0DAFFDE2A000EDD22000E426E000E81
:100BB600416E120043C0D9FF44C0DAFFDECFF6FF14
:100BC600DDCFF7FF0800F550026E036A41C004F05E
:100BD60042C005F008EC08F043C0D9FF44C0DAFF74
:100BE600DE2A000EDD22D5D7000E126E10AE12D010
:100BF600101E0F1E0E1E0D1E0C1E0B1E0A1E096C4D
:100C0600000E0A220B220C220D220E220F22102287
:100C1600010E126E08AE12D0081E071E061E051E15
:100C2600041E031E021E016C000E02220322042271
:100C36000522062207220822010E121A20EE13F0C0
:100C4600070EDE6AE806FDE209500A100B100C10CA
:100C56000D100E100F101010D8B446D0010E116EE4
:100C66000AD0D89009360A360B360C360D360E36B3
:100C76000F361036112A10AEF4D7D8901336143624
:100C8600153616361736183619361A360950015CD7
:100C96000A5002580B5003580C5004580D50055872
:100CA6000E5006580F50075810500858D8A011D0AB
:100CB6000950015E0A50025A0B50035A0C50045A4E
:100CC6000D50055A0E50065A0F50075A1050085A22
:100CD6001380D89010320F320E320D320C320B3296
:100CE6000A320932112EC9D71250D8B410D01A1EA2
:100CF600191E181E171E161E151E141E136C000E26
:100D06001422152216221722182219221A2213C07B
:100D160001F014C002F015C003F016C004F017C0AD
:100D260005F018C006F019C007F01AC008F0120046
:100D3600000E126E08AE12D0081E071E061E051EF5
:100D4600041E031E021E016C000E02220322042250
:100D56000522062207220822010E126E10AE10D0BE
:100D6600101E0F1E0E1E0D1E0C1E0B1E0A1E096CDB
:100D7600000E0A220B220C220D220E220F22102216
:100D860009500A100B100C100D100E100F10101039
:100D9600D8B43CD0010E116E0AD0D89009360A3666
:100DA6000B360C360D360E360F361036112A10AEAF
:100DB600F4D70950015C0A5002580B5003580C50E6
:100DC60004580D5005580E5006580F50075810502D
:100DD6000858D8A010D00950015E0A50025A0B508C
:100DE600035A0C50045A0D50055A0E50065A0F500D
:100DF600075A1050085AD89010320F320E320D3260
:100E06000C320B320A320932112ED3D71250D8B413
:100E160010D0081E071E061E051E041E031E021EF7
:100E2600016C000E0222032204220522062207225A
:100E3600082201C001F002C002F003C003F004C0A2
:100E460004F005C005F006C006F007C007F008C0AC
:100E560008F01200D80E0001906F0F0E916F490E28
:100E6600926F400E936F000E0E6E090E0F6E3D0EC2
:100E7600106E000E116E800E126E250E136E000E91
:100E8600146E000E156E3EEC08F0640E046EA80E8D
:100E9600036E000E26EC09F090C003F091C004F03A
:100EA60092C005F093C006F0020E3AEC09F0000E6F
:100EB600E6EC08F003C096F004C097F0020EB2EC20
:100EC60008F0010E596E080E5A6E96C05BF097C078
:100ED6005CF012EC09F0030E5E6E8A0E5D6E560E25
:100EE600E82EFED75D2EFCD75E2EFAD7EAD7000194
:100EF60066A10AD014C00BF015C00CF012C00DF09C
:100F060013C00EF096EC08F017BE05D016C01BF005
:100F160017C01CF004D0000E1C6E000E1B6E000ED7
:100F26001A6E000E196E0CD0000E036E200E026EA5
:100F360012C004F013C005F008EC08F0194A1A2A8A
:100F46001B50195C1A50800A186E1C50800A1858DB
:100F5600D8A0EAD7000166B10AD014C00BF015C0BC
:100F66000CF012C00DF013C00EF096EC08F014C091
:100F760001F015C002F0FDEC08F01B500124126EC2
:100F86001C500220136E1200000E096E000E0A6E2F
:100F9600000E0B6E000E0C6E0550061007100810A2
:100FA600D8B42AD0010E0D6E06D0D8900536063676
:100FB600073608360D2A08AEF8D7D89009360A360D
:100FC6000B360C360550015C065002580750035884
:100FD60008500458D8A009D00550015E0650025AA0
:100FE6000750035A0850045A0980D890083207322D
:100FF600063205320D2EE1D709C001F00AC002F013
:101006000BC003F00CC004F0120004500510D8B455
:1010160004D004500510D8A404D0025078EC09F08E
:10102600120020EE04F00450D9260550DA22DE50D4
:10103600DE10D8B416D020EE04F00450D9260550A0
:10104600DA2210EE02F00450E1260550E222DE50CC
:10105600E65CE650800A0A6EDE50800A0A58D8B06E
:10106600120020EE02F00450D9260550DA22DE2ABC
:10107600000EDD221200949C948EAC98AC84B89637
:101086000EC001F00FC002F010C003F011C004F052
:1010960012C016F013C017F014C018F015C019F0DE
:1010A600040ED8901636173618361936E82EF9D7A4
:1010B60016C005F017C006F018C007F019C008F0F2
:1010C600C7EC07F00104AF6EAB8EAC8AAB8812009A
:1010D60053C057F054C058F0000E0001616F000E67
:1010E600606F13D051C041F052C042F0570E436EAC
:1010F600000E446E55C045F056C046F036EC05F07D
:101106004150000160274250612357C0F6FF58C086
:10111600F7FF0800F5500009D8A4E4D760C051F0E5
:1011260061C052F01200000E116E000E106E0BD050
:101136000FC002F0036A0DC004F00EC005F008EC03
:1011460008F0104A112A10500B24D96E11500C20A9
:10115600DA6EDF500F6E0F50D8B41200E9D7076E63
:10116600000E0C6E080E0C24D96EDA6A000EDA2216
:1011760007500C246EEC09F0DF6E0C2A030E0C648B
:10118600F1D708C003F009C004F00AC005F00BC08F
:1011960006F0120014BE05D0145010E11304D8B0A6
:1011A6000DD013C015F014C016F0151E161E154AE4
:1011B600162A15C013F016C014F0120013C013F04F
:1011C60014C014F01200056E000E086E060E0824F8
:1011D600D96EDA6A000EDA22055008246EEC09F0A0
:1011E600DF6E082A010E0864F1D706C003F007C0B7
:1011F60004F0120001C003F002C004F002D0014A5C
:10120600022A01C0D9FF02C0DAFFDF50D8A4F7D7FF
:101216000350015C016E04500258026E12005B0E10
:1012260000018A6F000E8B6F000E516E000E526E1B
:1012360059C053F05AC054F08A0E556E000E566EC1
:101246006BEC08F01200056E000E066E030E062407
:10125600D96EDA6A000EDA22DF50016E05500624D6
:101266004EEC09F0062A010E0664F0D71200076E4E
:10127600000E086E030E0824D96EDA6A000EDA2212
:10128600DF50016E075008244EEC09F0082A030EC1
:101296000864F0D71200026E02C0A9FF01C0A8FFC1
:1012A600A69EA69CA684F29E550EA76EAA0EA76EB3
:1012B600A682F28EA1A8FED7A198120000EE60F0D9
:1012C600280EEE6AE806FDE1000EF86E080EF76ECF
:1012D60000012DEF07F0016E01C0A9FFA69EA69C96
:1012E600A680A8CF02F002501200016EACA2FED773
:0612F60001C0ADFF120073
:020000040020DA
:08000000FFFFFFFFFFFFFFFF00
:020000040030CA
:0E00000000001F1EFF8181FF0FC00FE00F40A8
:00000001FF
