:020000040000FA
:04000000F1EF05F027
:10080000005049433138463435353000496E7472F2
:100810006F64756365206C6120636F6E74726173C1
:10082000656E613A200A0D00436F6E7472617365E4
:100830006E61206572726F6E65610A0D00424945F6
:090840004E56454E49444F00009C
:10084A000DC0D9FF0EC0DAFFDECFF6FFDDCFF7FF0E
:10085A000800F550250AD8A440D00DC0D9FF0EC013
:10086A00DAFFDE2A000EDD22000E566E000E556EED
:10087A0055C059F056C05AF0576858680DC0D9FF8C
:10088A000EC0DAFFDECFF6FFDDCFF7FF0800F55026
:10089A00250AD8A416D00DC0D9FF0EC0DAFFDE2A69
:1008AA00000EDD22000E036E250E026E0BC004F050
:1008BA000CC005F008EC05F0000E0C6E010E0B6E74
:1008CA0012000DC0D9FF0EC0DAFFDE2A000EDD22AB
:1008DA00000E0C6E000E0B6E12000DC0D9FF0EC07A
:1008EA00DAFFDECFF6FFDDCFF7FF0800F550026E24
:1008FA00036A0BC004F00CC005F008EC05F00DC04B
:10090A00D9FF0EC0DAFFDE2A000EDD22D5D7000E8F
:10091A00096E000E0A6E000E0B6E000E0C6E05506C
:10092A00061007100810D8B42AD0010E0D6E06D092
:10093A00D89005360636073608360D2A08AEF8D797
:10094A00D89009360A360B360C360550015C06502B
:10095A0002580750035808500458D8A009D0055027
:10096A00015E0650025A0750035A0850045A098079
:10097A00D89008320732063205320D2EE1D709C067
:10098A0001F00AC002F00BC003F00CC004F0120020
:10099A00000E0E6E090E0F6E3D0E106E000E116ED9
:1009AA00800E126E250E136E000E146E000E156E5A
:1009BA006DEC05F00C0E196E080E1A6EDEEC05F0E1
:1009CA001F0E016E000E026EC3EC05F007D0280E52
:1009DA00196E080E1A6EDEEC05F0F2D7010E016EE2
:1009EA00080E026E1F0E036E000E046E3EEC05F03A
:1009FA0001500210D8A4EBD73D0E196E080E1A6EDC
:100A0A00DEEC05F0FFD704500510D8B404D004502A
:100A1A000510D8A404D00250FEEC05F0120020EE16
:100A2A0004F00450D9260550DA22DE50DE10D8B47C
:100A3A0016D020EE04F00450D9260550DA2210EE22
:100A4A0002F00450E1260550E222DE50E65CE65050
:100A5A00800A0A6EDE50800A0A58D8B0120020EEC8
:100A6A0002F00450D9260550DA22DE2A000EDD22D1
:100A7A00120004D0014A022A034A042A03C0D9FFF9
:100A8A0004C0DAFF01C0F6FF02C0F7FFDE5009001A
:100A9A00F518D8A409D001C0F6FF02C0F7FF080074
:100AAA00F5500009D8A4E6D701C0F6FF02C0F7FF47
:100ABA000800F5CF05F003C0D9FF04C0DAFFDF5004
:100ACA00066E0650055C016E026AD8A00206120084
:100ADA00949C948EAC98AC84B8960EC001F00FC06A
:100AEA0002F010C003F011C004F012C016F013C0D7
:100AFA0017F014C018F015C019F0040ED890163665
:100B0A00173618361936E82EF9D716C005F017C069
:100B1A0006F018C007F019C008F08CEC04F00104C4
:100B2A00AF6EAB8EAC8AAB88120013C017F014C03C
:100B3A0018F0000E546E000E536E12D011C00BF056
:100B4A0012C00CF0170E0D6E000E0E6E15C00FF0CF
:100B5A0016C010F025EC04F00B5053260C5054220A
:100B6A0017C0F6FF18C0F7FF0800F5500009D8A40F
:100B7A00E5D753C011F054C012F012009EAAFED756
:100B8A00AECF03F00D0E0318D8B408D001C0D9FFB8
:100B9A0002C0DAFF03C0DFFF014A022A0D0E031862
:100BAA00D8A4ECD701C0D9FF02C0DAFF000EDF6E6D
:100BBA0012001B0E1D6E000E1E6E000E116E000E30
:100BCA00126E19C013F01AC014F01D0E156E000E25
:100BDA00166E9AEC05F0120000EE33F0280EEE6A5B
:100BEA00E806FDE1000EF86E080EF76E0001CDEF83
:0E0BFA0004F0016EACA2FED701C0ADFF1200E8
:020000040020DA
:08000000FFFFFFFFFFFFFFFF00
:020000040030CA
:0E00000000001F1EFF8181FF0FC00FE00F40A8
:00000001FF
