:020000040000FA
:04000000BBEF0BF057
:100800000052656C6F6A2052544320445331333098
:10081000370025642F25642F25640025643A25645C
:050820003A2564000010
:100826001CC034F01DC035F01EC036F01FC037F0B6
:1008360020C038F021C039F022C03AF023C03BF086
:100846003BAE02D0010E01D0000E326E336A32503A
:100856003310D8B410D03B1E3A1E391E381E371E30
:10086600361E351E346C000E3522362237223822CB
:1008760039223A223B2265AF5D9265BF05D06551AC
:1008860008E16405D8B005D0000E2F6E010E2E6E5D
:1008960004D064C02EF065C02FF062C030F063C093
:1008A60031F032503310D8A402D05DA403D0300604
:1008B600D8A03106000E3D6E1F0E3C6E000E856FF1
:1008C6007AD03C06D8A03D063C50660FD96EDA6A4F
:1008D60034C001F035C002F036C003F037C004F072
:1008E60038C005F039C006F03AC007F03BC008F042
:1008F6000A0E096E000E0A6E000E0B6E000E0C6ECE
:10090600000E0D6E000E0E6E000E0F6E000E106EB7
:100916006DEC06F001C024F002C025F003C026F0FD
:1009260004C027F005C028F006C029F007C02AF049
:1009360008C02BF024C013F026C014F054EC0BF0C2
:100946001350300FDF6E2E06D8A02F063006D8A023
:10095600310634C001F035C002F036C003F037C0AE
:1009660004F038C005F039C006F03AC007F03BC0C5
:1009760008F00A0E096E000E0A6E000E0B6E000ECF
:100986000C6E000E0D6E000E0E6E000E0F6E000E3B
:10099600106E2AEC05F001C034F002C035F003C039
:1009A60036F004C037F005C038F006C039F007C08D
:1009B6003AF008C03BF03DBE1FD03D5003E13C0479
:1009C600D8A01AD0345035103610371038103910D8
:1009D6003A103B10D8A475D72FBE05D02F5002E190
:1009E6002E04D8B06ED731BE07D0315003E13004A3
:1009F600D8A002D05DB265D732503310D8A402D049
:100A06005DA415D03C06D8A03D0632503310D8A4BC
:100A160004D0000E2D6E2B0E03D0000E2D6E2D0E63
:100A26002C6E3C50660FD96EDA6A2CC0DFFF1BC0F5
:100A36000EF03C50660F0F6E30C010F031C011F052
:100A460055EC0AF00EC01BF00FC01CF01200000E91
:100A5600126E10AE12D0101E0F1E0E1E0D1E0C1E94
:100A66000B1E0A1E096C000E0A220B220C220D22F6
:100A76000E220F221022010E126E08AE12D0081E90
:100A8600071E061E051E041E031E021E016C000E16
:100A96000222032204220522062207220822010E30
:100AA600121A20EE13F0070EDE6AE806FDE2095080
:100AB6000A100B100C100D100E100F101010D8B4D9
:100AC60046D0010E116E0AD0D89009360A360B367A
:100AD6000C360D360E360F361036112A10AEF4D7F8
:100AE600D890133614361536163617361836193684
:100AF6001A360950015C0A5002580B5003580C5024
:100B060004580D5005580E5006580F5007581050EF
:100B16000858D8A011D00950015E0A50025A0B504D
:100B2600035A0C50045A0D50055A0E50065A0F50CF
:100B3600075A1050085A1380D89010320F320E32CE
:100B46000D320C320B320A320932112EC9D712502D
:100B5600D8B410D01A1E191E181E171E161E151EE2
:100B6600141E136C000E14221522162217221822A8
:100B760019221A2213C001F014C002F015C003F0A6
:100B860016C004F017C005F018C006F019C007F02B
:100B96001AC008F012003F50D96EDA6ADFCFF6FFAE
:100BA600080EF76E0800F550250AD8A47FD03F50EE
:100BB600D96EDA6ADF2A000E0001636F000E626FDB
:100BC60062C05DF063C05EF0646965693F50D96ECE
:100BD600DA6ADFCFF6FF080EF76E0800F550640AF2
:100BE600D8B40CD03F50D96EDA6ADFCFF6FF080EC4
:100BF600F76E0800F550690AD8A432D03F50D96E76
:100C0600DA6ADF2A4050D96EDA6ADF50DF2ADF2A35
:100C1600D96EDA6ADECF41F0DDCF42F0000E42BE79
:100C2600FF0E436E446E456E466E476E486E3EC07E
:100C36001BF041C01CF042C01DF043C01EF044C072
:100C46001FF045C020F046C021F047C022F048C042
:100C560023F013EC04F01BC03EF01CC03FF0120062
:100C66003F50D96EDA6ADFCFF6FF080EF76E08003E
:100C7600F550250AD8A411D03F50D96EDA6ADF2A7A
:100C8600000E026E250E016E3EC003F015EC0AF052
:100C9600000E3F6E010E3E6E12003F50D96EDA6AAC
:100CA600DF2A000E3F6E000E3E6E12003F50D96ED8
:100CB600DA6ADFCFF6FF080EF76E0800F550016E10
:100CC600026A3EC003F015EC0AF03F50D96EDA6AAC
:100CD600DF2ADED7000E126E08AE12D0081E071EDF
:100CE600061E051E041E031E021E016C000E0222B5
:100CF600032204220522062207220822010E126E72
:100D060010AE10D0101E0F1E0E1E0D1E0C1E0B1E3A
:100D16000A1E096C000E0A220B220C220D220E223C
:100D26000F22102209500A100B100C100D100E1075
:100D36000F101010D8B43CD0010E116E0AD0D89006
:100D460009360A360B360C360D360E360F36103689
:100D5600112A10AEF4D70950015C0A5002580B5004
:100D660003580C5004580D5005580E5006580F5095
:100D7600075810500858D8A010D00950015E0A50E4
:100D8600025A0B50035A0C50045A0D50055A0E5075
:100D9600065A0F50075A1050085AD89010320F3280
:100DA6000E320D320C320B320A320932112ED3D7E3
:100DB6001250D8B410D0081E071E061E051E041EAB
:100DC600031E021E016C000E0222032204220522CB
:100DD60006220722082201C001F002C002F003C069
:100DE60003F004C004F005C005F006C006F007C015
:100DF60007F008C008F01200036E8C9A8C88016A0E
:100E060003AE01D0012A010E011601460146014634
:100E16008C500118F70B01188C6E03C001F0060EFA
:100E2600026ED8900132022EFCD7010E0116014641
:100E360001468C500118FB0B01188C6E03C001F0A3
:100E4600050E026ED8900132022EFCD7010E011655
:100E560001468C500118FD0B01188C6E03C001F081
:100E6600013A0F0E0116010E01168C500118FE0BE9
:100E760001188C6E030EE82EFED700F08C8A00D087
:100E860000D000F08C9A03C001F0D8900132D890BF
:100E96000132D8900132010E011601460146014683
:100EA6008C500118F70B01188C6E03C001F0D89016
:100EB6000132D8900132010E0116014601468C50CE
:100EC6000118FB0B01188C6E03C001F0D89001329B
:100ED600010E011601468C500118FD0B01188C6E8F
:100EE60003C001F0010E01168C500118FE0B01180B
:100EF6008C6E030EE82EFED700F08C8A00D000D050
:100F060000F08C9A00D000D000F0080E016E230E7F
:100F1600E82EFED7012EFCD700F01200036E8C9A45
:100F26008C98016A03AE01D0012A010E0116014612
:100F3600014601468C500118F70B01188C6E03C050
:100F460001F0060E026ED8900132022EFCD7010E79
:100F56000116014601468C500118FB0B01188C6ED8
:100F660003C001F0050E026ED8900132022EFCD7A6
:100F7600010E011601468C500118FD0B01188C6EEE
:100F860003C001F0013A0F0E0116010E01168C5036
:100F96000118FE0B01188C6E030EE82EFED700F02A
:100FA6008C8A00D000D000F08C9A03C001F0D89053
:100FB6000132D8900132D8900132010E0116014655
:100FC600014601468C500118F70B01188C6E03C0C0
:100FD60001F0D8900132D8900132010E0116014677
:100FE60001468C500118FB0B01188C6E03C001F0F2
:100FF600D8900132010E011601468C500118FD0BE6
:1010060001188C6E03C001F0010E01168C500118F8
:10101600FE0B01188C6E030EE82EFED700F08C8AAC
:1010260000D000D000F08C9A080E016E230EE82E38
:10103600FED7012EFCD700F0120095969594959256
:101046009590959A95988C968C948C928C908C9A77
:101056008C98080E046E230EE82EFED7042EFCD7BD
:1010660000F0080E046E230EE82EFED7042EFCD7E1
:1010760000F0080E046E230EE82EFED7042EFCD7D1
:1010860000F0080E046E230EE82EFED7042EFCD7C1
:1010960000F0080E046E230EE82EFED7042EFCD7B1
:1010A60000F0080E046E230EE82EFED7042EFCD7A1
:1010B60000F0010E056E8C968C948C828C808C9A36
:1010C6008C988C968C948C828C808C8A8C9800D090
:1010D60000D000F08C968C948C828C808C9A8C98A4
:1010E600080E046E230EE82EFED7042EFCD700F061
:1010F600052A030E0564DFD78C968C948C828C901F
:101106008C9A8C988C968C948C828C908C8A8C98E9
:1011160000D000D000F08C968C948C828C908C9AA7
:101126008C98080E046E230EE82EFED7042EFCD7EC
:1011360000F0280E91EC07F0100E91EC07F0010E6E
:1011460091EC07F00F0E91EC07F01200D350FC0B58
:101156000209D36ED3508F0B6009D36E000E0E6E4C
:10116600090E0F6E3D0E106E000E116EA00E126E61
:10117600860E136E010E146E000E156EC8EC0AF084
:1011860020EC08F0010E91EC07F00C0E91EC07F044
:101196003B0E076E320E086E010E096E010E0A6EC8
:1011A600030E0B6E150E0C6E180E94EC0AF09A0ECA
:1011B600046E24EC09F0860E4D6E120E4E6E9EC025
:1011C6004FF0506A9FC051F0526AA0C053F0546A63
:1011D60039EC0BF0900E4D6E1B0E4E6E9CC04FF010
:1011E600506A9BC051F0526A9AC053F0546A39EC67
:1011F6000BF0020E046E010E056E0550D8A4080E03
:10120600066E010E85EC09F0060E046E860E056E5E
:10121600066A020E85EC09F0060E046E900E056E47
:10122600066A030E85EC09F0210EE82EFED700F0C3
:101236003B0E00019A19D8A4BAD7010E91EC07F01B
:10124600B6D7F4EC0BF0000E026ED00EECEC0BF001
:101256000DEC0CF0D10ED5EC0BF00450D96EDA6A19
:10126600FAEC0BF0E1EC0BF0DF6E04EC0CF0045042
:10127600D96EDA6A010ED926FAEC0BF0E1EC0BF026
:10128600DF6E04EC0CF00450D96EDA6A020ED92631
:10129600FAEC0BF0E1EC0BF0DF6E04EC0CF0045012
:1012A600D96EDA6A030ED926FAEC0BF0E1EC0BF0F4
:1012B600DF6E04EC0CF00450D96EDA6A040ED926FF
:1012C600FAEC0BF0E1EC0BF0DF6E04EC0CF00450E2
:1012D600D96EDA6A050ED926FAEC0BF0E1EC0BF0C2
:1012E600DF6E04EC0CF00450D96EDA6A060ED926CD
:1012F600FAEC0BF0E1EC0BF0DF6EFFEC0BF009EC17
:101306000CF01200096E0DD00450800F08D0045066
:10131600C00F05D00450940F02D00450D40F0A6EAB
:1013260014D00950076E086A0850000AD8A40DD0D8
:101336000750010AD8B4E8D7030AD8B4E8D7010A97
:10134600D8B4E8D7070AD8B4E8D70A5091EC07F022
:1013560014D005C0F6FF06C0F7FFF86A070EF7645B
:1013660003D00800F55005D0F6CFE1FFF7CFE2FF36
:10137600E750FFEC06F0054A062A05C0F6FF06C050
:10138600F7FFF86A070EF76403D00800F55005D09A
:10139600F6CFE1FFF7CFE2FFE7500009D8B412001D
:1013A600D8D7000E096E000E0A6E000E0B6E000EE8
:1013B6000C6E0550061007100810D8B42AD0010E7E
:1013C6000D6E06D0D89005360636073608360D2A35
:1013D60008AEF8D7D89009360A360B360C360550C3
:1013E600015C065002580750035808500458D8A00C
:1013F60009D00550015E0650025A0750035A08509C
:10140600045A0980D89008320732063205320D2E6A
:10141600E1D709C001F00AC002F00BC003F00CC00E
:1014260004F012000350D8B403D00350D8A404D05B
:10143600015011EC0CF012000350D96EDA6A030E5B
:10144600D926DE50DE10D8B414D00350D96EDA6A2D
:10145600030ED9260350E16EE26A010EE126DE5044
:10146600E65CE650800A086EDE50800A0858D8B05E
:1014760012000350D96EDA6A010ED926DF50046EC7
:101486000350D96EDA6ADF500424D96EDA6A01C0D5
:10149600DFFF0350D96EDA6A010ED926DE2A000E66
:1014A600DD2212005DA006D00FC009F00EC00AF0C2
:1014B6006DEC0BF011BE05D010C015F011C016F082
:1014C60004D0000E166E000E156E000E146E000E81
:1014D600136E0AD0000E026E200E016E0EC003F0CF
:1014E60015EC0AF0134A142A1550135C1450800A9E
:1014F600126E1650800A1258D8A0ECD75DB006D0EE
:101506000FC009F00EC00AF06DEC0BF00FC001F031
:101516009AEC0BF0155001240E6E165002200F6E39
:1015260012000D6E08507F0B086E0D503F0B0D6EAE
:10153600F4EC0BF0000E026ED00EECEC0BF0085043
:10154600ABEC0BF0D5EC0BF00750ABEC0BF0D5EC9D
:101556000BF00D50ABEC0BF0D5EC0BF00950ABECEF
:101566000BF0D5EC0BF00A50ABEC0BF0D5EC0BF016
:101576000B50ABEC0BF0D5EC0BF00C50ABEC0BF0CE
:10158600D5EC0BF009EC0CF0120093809382C78E19
:10159600C650F00B0809C66E0EC001F00FC002F06F
:1015A60010C003F011C004F012C016F013C017F0FB
:1015B60014C018F015C019F0020ED890163617365A
:1015C60018361936E82EF9D716C005F017C006F0FA
:1015D60018C007F019C008F0D4EC09F001041A6E1F
:1015E6001AC0C8FF000EC56EC68A12004AC04CF06B
:1015F600000E0001616F000E606F0DD049C03EF015
:101606004C0E3F6E4BC040F0CEEC05F03E50000154
:1016160060273F5061234CC0F6FF080EF76E0800A6
:10162600F5500009D8A4EAD760C049F061C04AF075
:101636001200026E000E046E0150D8B415D0010ED1
:10164600036E03D0D8900136032A01AEFBD7D8909B
:1016560004360150025CD8A003D00150025E04801B
:10166600D8900132032EF3D7045012004F0E576E56
:101676004DC058F0000E5A6E000E596E000E5C6E8C
:10168600000E5B6E580E496E4EC04AF0570E4B6EFA
:10169600F9EC0AF04D505924D96EDA6A000EDF6E65
:1016A600120014BE05D0145010E11304D8B00DD0AA
:1016B60013C015F014C016F0151E161E154A162A6C
:1016C60015C013F016C014F0120013C013F014C0A6
:1016D60014F01200000E0D6E000E0C6E09D00BC039
:1016E60001F0026A0AC003F015EC0AF00C4A0D2A52
:1016F60009500C24D96EDA6ADF500B6E0B50D8B441
:101706001200EDD7026E080E036E000E046ED8901E
:1017160002340434046ED89002360150045CD8A01A
:1017260002D00150045E032EF2D70450120001C00D
:1017360003F001D0012A0150D96EDA6ADF50D8A42D
:10174600F9D70350015C016E026A01BE020612005F
:10175600066E0A0E016E065085EC0BF0056E0A0E3B
:10176600016E06501CEC0BF0100DF3500524120010
:1017760000EE60F0260EEE6AE806FDE15E6A5D6A3E
:10178600000EF86E0001A9EF08F0C7A403D0016AA5
:10179600012A01D0016AC5501F0B01100009D8B4F7
:1017A6001200F3D7016E01C0C9FFC7A4C7B0FDD7A9
:1017B600C5AC02D0C58412009E961200026E02C00D
:1017C60001F00F0E011602380F0B0A0DF35001241B
:1017D6001200036E0350D5EC0BF00250D5EC0BF063
:1017E6001200C8EC0BF0C580C5A01200FDD7C58657
:1017F600C7A0FED7C9501200C58AC588C5A8120061
:10180600FDD7C59AC588C5A81200FDD7C584C5A44D
:0E1816001200FDD7C582C5A21200FDD7120038
:020000040020DA
:08000000FFFFFFFFFFFFFFFF00
:020000040030CA
:0E000000000A1E1EFF8181FF0FC00FE00F409F
:00000001FF
