:0400000002EF07F014
:0508000000256300006B
:10080600036E8A9A8A88016A03AE01D0012A010E14
:1008160001160146014601468A500118F70B0118D8
:100826008A6E03C001F0060E026ED8900132022EC7
:10083600FCD7010E0116014601468A500118FB0B32
:1008460001188A6E03C001F0050E026ED8900132BF
:10085600022EFCD7010E0116013A014601468C50C4
:100866000118BF0B01188C6E03C001F0013A0F0E80
:100876000116010E0116013201328C5001187F0B50
:1008860001188C6E030EE82EFED700F08A8A00D07F
:1008960000D000F08A9A03C001F0D8900132D890B7
:1008A6000132D8900132010E011601460146014679
:1008B6008A500118F70B01188A6E03C001F0D89010
:1008C6000132D8900132010E0116014601468A50C6
:1008D6000118FB0B01188A6E03C001F0D890013293
:1008E600010E0116013A014601468C500118BF0B54
:1008F60001188C6E03C001F0010E0116013201329F
:100906008C5001187F0B01188C6E030EE82EFED753
:1009160000F08A8A00D000D000F08A9A00D000D079
:1009260000F0080E016E230EE82EFED7012EFCD72E
:1009360000F01200036E8A9A8A98016A03AE01D00B
:10094600012A010E01160146014601468A50011888
:10095600F70B01188A6E03C001F0060E026ED890DE
:100966000132022EFCD7010E0116014601468A50BD
:100976000118FB0B01188A6E03C001F0050E026E0A
:10098600D8900132022EFCD7010E0116013A01461B
:1009960001468C500118BF0B01188C6E03C001F084
:1009A600013A0F0E0116010E0116013201328C506A
:1009B60001187F0B01188C6E030EE82EFED700F08F
:1009C6008A8A00D000D000F08A9A03C001F0D8903D
:1009D6000132D8900132D8900132010E011601463B
:1009E600014601468A500118F70B01188A6E03C0AA
:1009F60001F0D8900132D8900132010E011601465D
:100A060001468A500118FB0B01188A6E03C001F0DB
:100A1600D8900132010E0116013A014601468C506A
:100A26000118BF0B01188C6E03C001F0010E0116F0
:100A3600013201328C5001187F0B01188C6E030EA7
:100A4600E82EFED700F08A8A00D000D000F08A9AFD
:100A5600080E016E230EE82EFED7012EFCD700F0FD
:100A6600120093969394959C959E939A93988A9642
:100A76008A948C9C8C9E8A9A8A98080E046E230E01
:100A8600E82EFED7042EFCD700F0080E046E230EC7
:100A9600E82EFED7042EFCD700F0080E046E230EB7
:100AA600E82EFED7042EFCD700F0080E046E230EA7
:100AB600E82EFED7042EFCD700F0080E046E230E97
:100AC600E82EFED7042EFCD700F0080E046E230E87
:100AD600E82EFED7042EFCD700F0010E056E1ED0C0
:100AE6008A968A948C8C8C8E8A9A8A988A968A940C
:100AF6008C8C8C8E8A8A8A9800D000D000F08A96D8
:100B06008A948C8C8C8E8A9A8A98080E046E230E90
:100B1600E82EFED7042EFCD700F0052A030E056446
:100B2600DFD78A968A948C8C8C9E8A9A8A988A9623
:100B36008A948C8C8C9E8A8A8A9800D000D000F089
:100B46008A968A948C8C8C9E8A9A8A98080E046E51
:100B5600230EE82EFED7042EFCD700F0280E056ED5
:100B660005509DEC04F0100E056E05509DEC04F04A
:100B7600010E056E05509DEC04F00F0E056E055036
:100B86009DEC04F01200800E016E080EDCEC06F0FF
:100B960034EC05F00C0E9DEC04F0010E9DEC04F017
:100BA600C580C5B0FED7F9EC06F0A00EB6EC06F08F
:100BB600F9EC06F0000EB6EC06F0000EB6EC06F008
:100BC600400EB6EC06F00D0E0B6EFC0EE82EFED7B0
:100BD6000B2EFCD7C584C5B4FED70D0E0B6EFC0ECE
:100BE600E82EFED70B2EFCD7C580C5B0FED7F9EC94
:100BF60006F0A00EB6EC06F0F9EC06F0000EB6EC28
:100C060006F0000EB6EC06F0C582C5B2FED7F9ECCA
:100C160006F0A10EB6EC06F0F9EC06F0EBEC06F0E9
:100C26000C6E0D0E0B6EFC0EE82EFED70B2EFCD7AF
:100C3600C58AC588C5B8FED7C584C5B4FED70D0E0E
:100C46000B6EFC0EE82EFED70B2EFCD70D0E016E9A
:100C5600000E026E010E036E080E046E0CC005F047
:100C6600066A40EC06F0000E046E0D0E056E000ED0
:100C7600066E010E85EC06F093D7050E086E000E83
:100C8600096E2DD0250E0A18D8B404D010D0014A0A
:100C9600022A25D0000E076E11D008C0D9FF09C060
:100CA600DAFFDF500A6E020E0826000E092201C086
:100CB600D9FF02C0DAFF0AC0DFFFE9D703C0F6FF9B
:100CC60004C0F7FF034A042A0800F5CF0AF00A50C9
:100CD600000AD8B410D0630AD8B4DFD7E8D703C067
:100CE600F6FF04C0F7FF034A042A0800F5CF0AF00E
:100CF6000A50D8A4C7D701C0D9FF02C0DAFF000E38
:100D0600DF6E1200076E0DD00450800F08D004501D
:100D1600C00F05D00450940F02D00450D40F086EB3
:100D26000DD00750010AD8B4EFD7030AD8B4EFD7CD
:100D3600010AD8B4EFD7070AD8B4EFD708509DEC0C
:100D460004F009D005C0D9FF06C0DAFFDF5003EC76
:100D560004F0054A062A05C0D9FF06C0DAFFDF50AF
:100D6600D8B41200EFD7026E02C0C9FFC6BE120089
:100D7600C6500F0B080AD8B40CD0C6500F0B0B0A7E
:100D8600D8B407D0C6889EA6FED7C7B41200C750EF
:100D96001200C6500F0B080AD8B405D0C6500F0B68
:100DA6000B0AD8A41200C7B0FED7F9EC06F0C5505E
:100DB6001200026E3F0EC716000EC66E000EC56EFE
:100DC6000250C6120150C71293829380C68A12003F
:100DD600C6500F0B080AD8B404D0C6500F0B0B0A26
:100DE600D8B4C586C7A0FED7C9501200C5CF01F03A
:100DF6001F0E0116D8A4FAD7C7A41200F7D7000E03
:080E0600F86E0001C6EF05F0D3
:020000040020DA
:08000000FFFFFFFFFFFFFFFF00
:020000040030CA
:0E00000000001F1EFF8181FF0FC00FE00F40A8
:00000001FF
