:020000040000FA
:04000000CEEF39F016
:10738A009390000E8A6EB18E300EB112A192B19016
:10739A001200566A556A546A536A526A516A00015F
:1073AA00FAEF39F0000E371A000E381A000E391AA1
:1073BA00800E3A1A33C001F034C002F035C003F02F
:1073CA0036C004F037C005F038C006F039C007F0FF
:1073DA003AC008F0D1EC3CF001C033F002C034F0FE
:1073EA0003C035F004C036F012009392C5EC39F0B0
:1073FA008A92CD0E456ECC0E466ECC0E476E3D0E71
:10740A00486E000E4A6EC80E496EF7EC3AF0060E48
:10741A00506E130E4F6EAE0EE82EFED74F2EFCD7CF
:10742A00502EFAD78A820A0E456ED70E466E230E62
:10743A00476E3C0E486E000E4A6EC80E496EF7EC57
:10744A003AF0060E506E130E4F6EAE0EE82EFED7B1
:10745A004F2EFCD7502EFAD7CBD73D343E34446E4C
:10746A004450D8A409D0000E3B6E000E3C6E000EAC
:10747A003D6E000E3E6E12003BC03FF03CC040F035
:10748A003DC041F03EC042F0200E05D0D8904232B5
:10749A00413240323F32E82EF9D73F50436E3D8E9B
:1074AA00FF0E3B16FF0E3C16FF0E3D16000E3E1653
:1074BA00960E445E44AE0DD04450800A970FD8A071
:1074CA00D2D7D8903E323D323C323B32443EF9D795
:1074DA000DD01F0E446407D0C6D7D8903B363C3631
:1074EA003D363E3644064450D8A4F7D74350D8B464
:1074FA0008D03E1E3D1E3C1E3B6C000E3C223D2227
:10750A003E223BC03BF03CC03CF03DC03DF03EC09B
:10751A003EF01200000E0114096E000E02140A6EEB
:10752A00800E03140B6E7F0E04140C6E09500A10A1
:10753A000B100C10D8A408D0000E016E000E026EBB
:10754A00000E036E000E046E000E0514096E000E86
:10755A0006140A6E800E07140B6E7F0E08140C6E4A
:10756A0009500A100B100C10D8A408D0000E056E92
:10757A00000E066E000E076E000E086E04AE09D0ED
:10758A00016C021ED8B0022A031ED8B0032A800E4C
:10759A00045608AE09D0056C061ED8B0062A071E86
:1075AA00D8B0072A800E0856000E011A000E021AD9
:1075BA00000E031A800E041A000E051A000E061A8F
:1075CA00000E071A800E081A0550015C0650025870
:1075DA000750035808500458D8B002D0D890120067
:1075EA00D8801200000E4E6E000E4D6E6F0E016EA8
:1075FA00120E026E830E036E3A0E046E45C005F03B
:10760A0046C006F047C007F048C008F08FEC3AF0D1
:10761A00D8A009D06F0E516E120E526E830E536EA1
:10762A003A0E546E08D045C051F046C052F047C0D9
:10763A0053F048C054F0000E1E6E000E1F6E800EEE
:10764A00206E420E216E000E056E240E066E740E1A
:10765A00076E4A0E086E51C001F052C002F053C0C4
:10766A0003F054C004F057EC3EF001C01AF002C017
:10767A001BF003C01CF004C01DF08DEC3BF01AC0D7
:10768A0037F01BC038F01CC039F01DC03AF0000EAC
:10769A00336EFF0E346E7F0E356E470E366ED7ECA4
:1076AA0039F033C03BF034C03CF035C03DF036C051
:1076BA003EF032EC3AF03BC055F03CC056F055C0B3
:1076CA00B2FF56C0B3FFB18014D0A1A212D08AB0C3
:1076DA0003D04B6A4B2A01D04B6A8A504B18FE0BD7
:1076EA004B188A6E4D4A4E2AA19255C0B2FF56C017
:1076FA00B3FF49C04BF04AC04CF0D8904B364C36D9
:10770A004B504D5C4C504E58D8A0DFD7B190120068
:10771A001D50800B2A6E1D501D24316E1CBE3180F7
:10772A003150D8B40DD03128D8A408D0000E1A6E22
:10773A00000E1B6E000E1C6E000E1D6E1C8E06D0F7
:10774A00000E1A6E000E1B6E000E1C6E000E1D6ED1
:10775A002150800B2A1A21502124326E20BE3280F9
:10776A003250D8B40DD03228D8A408D0000E1E6EDC
:10777A00000E1F6E000E206E000E216E208E06D0A7
:10778A00000E1E6E000E1F6E000E206E000E216E81
:10779A001E501F1020102110D8A417D0000E1A6EE8
:1077AA00000E1B6E000E1C6E000E1D6E800E1C124B
:1077BA007F0E1D122A501D121AC01AF01BC01BF090
:1077CA001CC01CF01DC01DF012003150D8A409D0F5
:1077DA00000E1A6E000E1B6E000E1C6E000E1D6E41
:1077EA001200325031C022F0236A225E000E235A60
:1077FA007F0E22242B6E000E23202C6E1AC026F038
:10780A001BC027F01CC028F01DC029F0000E1A6EFC
:10781A00000E1B6E000E1C6E000E1D6E000E2D6EED
:10782A00000E2E6E000E2F6E000E306E000E326E9F
:10783A0028D03250D8B411D0D890263627362836D8
:10784A002936D8901A361B361C361D3630BE1A8099
:10785A00D8902D362E362F3630361E50265C1F50C5
:10786A0027582050285821502958D8A009D0308CA0
:10787A001E50265E1F50275A2050285A2150295A36
:10788A00322A190E3264D5D726502710281029100B
:10789A00D8B411D02D800FD0D8901A361B361C368A
:1078AA001D3630BE1A80D8902D362E362F363036F9
:1078BA002B06D8A02C061CAEEFD7000E326E30AEC7
:1078CA0017D0FF0E2D14226EFF0E2E14236EFF0EFC
:1078DA002F14246E7F0E3014256E2250231024108C
:1078EA002510D8B403D0010E326E02D01AB0FBD7DD
:1078FA003250D8B41FD0010E1A26000E1B221C22A9
:10790A001D221DA017D01AC022F01BC023F01CC0D4
:10791A0024F01DC025F025342532243223322232A8
:10792A0022C01AF023C01BF024C01CF025C01DF091
:10793A002B4A2C2A2CBE10D02C5003E12B28D8A07D
:10794A000BD0000E2C6E2B68000E1A6E000E1B6EEA
:10795A00000E1C6E000E1D6E2CBE05D02C5011E1BF
:10796A002B04D8B00ED0000E2C6E000E2B6E000E1B
:10797A001A6E000E1B6E000E1C6E000E1D6E000E9F
:10798A002A6E2BC031F031A002D01C8E01D01C9E71
:10799A00D89031301D6E0ED70450800B0D6E0450F6
:1079AA0004240F6E03BE0F800F50D8B40DD00F28D9
:1079BA00D8A408D0000E016E000E026E000E036EEF
:1079CA00000E046E038E06D0000E016E000E026ECB
:1079DA00000E036E000E046E0850800B0E6E0D50E2
:1079EA000E18D8A40D8C085008240E6E07BE0E80FF
:1079FA000E50D8B40DD00E28D8A408D0000E056EAB
:107A0A00000E066E000E076E000E086E078E06D078
:107A1A00000E056E000E066E000E076E000E086E52
:107A2A000F500E5CD8B022D00DAC02D0800E0D1AC9
:107A3A000FC010F00EC00FF010C00EF001C010F011
:107A4A0005C001F010C005F002C010F006C002F037
:107A5A0010C006F003C010F007C003F010C007F012
:107A6A0004C010F008C004F010C008F0000E106E38
:107A7A000F500EC009F00A6A095E000E0A5A0ABEC1
:107A8A002CD00A5004E11A0E095CD8A026D0015065
:107A9A00021003100410D8B402D0010E01D0000E57
:107AAA00106E000E016E000E026E000E036E000EC6
:107ABA00046E0EC00FF015D010A005D0D89010306B
:107ACA000109106E02D0D890103201B0108E043421
:107ADA0004320332023201320F2A0E500F5CD8A050
:107AEA00EBD70DBC28D00F50D8A409D0000E016ED8
:107AFA00000E026E000E036E000E046E1200055098
:107B0A00012606500222075003220850042204A02C
:107B1A0071D010A005D0D89010300109106E02D093
:107B2A00D890103201B0108E04340432033202327B
:107B3A0001320F2A5FD00550015C065002580750E7
:107B4A0003580450800A096E0850800A0958D8B0B0
:107B5A0025D00150055C096E025006580A6E035082
:107B6A0007580B6E045008580C6EFF0E0924016E5C
:107B7A00FF0E0A20026EFF0E0B20036EFF0E0C2072
:107B8A00046E800E0D1A106C1050D8A40FD0010E7E
:107B9A000126000E02220322042208D00550015EAB
:107BAA000650025A0750035A0850045A015002104C
:107BBA0003100410D8A41CD01050D8A419D0000E59
:107BCA00016E000E026E000E036E000E046E1200AD
:107BDA00D890013602360336043610BE018010A052
:107BEA0002D0D88001D0D89010360F50D8A40F06F2
:107BFA0003AEEED7000E0E6E10AE0BD010C009F019
:107C0A007F0E0916D8B403D0010E0E6E02D001B051
:107C1A00FBD70E50D8B420D0010E0126000E022246
:107C2A000322042204A018D001C009F002C00AF0FD
:107C3A0003C00BF004C00CF00C340C320B320A32C5
:107C4A00093209C001F00AC002F00BC003F00CC0EF
:107C5A0004F00F28D8A40F2A0F28D8B403D00F5045
:107C6A00D8A40DD0000E016E000E026E000E036E37
:107C7A00000E046E0F50D8A402D0000E0D6E0FA095
:107C8A0002D0038E01D0039ED8900F30046E0DBE31
:107C9A00048E01C001F002C002F003C003F004C068
:107CAA0004F012000450800B0D6E04500424136E6D
:107CBA0003BE13801350D8B40DD01328D8A408D00B
:107CCA00000E016E000E026E000E036E000E046EB0
:107CDA00038E08D0000E016E000E026E000E036EB7
:107CEA00000E046E0850800B0D1A08500824126EFC
:107CFA0007BE12801250D8B40DD01228D8A408D0CA
:107D0A00000E056E000E066E000E076E000E086E5F
:107D1A00078E08D0000E056E000E066E000E076E66
:107D2A00000E086E1250D8B403D01350D8A409D04C
:107D3A00000E016E000E026E000E036E000E046E3F
:107D4A00120007500102F3CF18F0F4CF19F01850BF
:107D5A000E6E0F6A106A116A1950146E156A166A45
:107D6A00176A06500202F3CF18F0F4CF19F0185030
:107D7A000E26000E0F221022112219501426000E70
:107D8A0015221622172205500302F3CF18F0F4CF5A
:107D9A0019F018500E26000E0F2210221122195027
:107DAA001426000E15221622172210C011F00FC039
:107DBA0010F00EC00FF00E6A05500202F3CF18F051
:107DCA00F4CF19F018500E2619500F22000E102267
:107DDA00000E112206500102F3CF18F0F4CF19F069
:107DEA0018500E2619500F22000E1022000E1122D2
:107DFA0010C011F00FC010F00EC00FF00E6A05503F
:107E0A000102F3CF18F0F4CF19F018500E261950CA
:107E1A000F22000E1022000E112207500202F3CF89
:107E2A0018F0F4CF19F01850142619501522000E24
:107E3A001622000E172206500302F3CF18F0F4CFD1
:107E4A0019F01850142619501522000E1622000E89
:107E5A00172207500302F3CF18F0F4CF19F0185085
:107E6A00096E19500A6E0B6A0C6A0BC00CF00AC034
:107E7A000BF009C00AF0096A095014260A501522A3
:107E8A000B5016220C5017220EC009F00FC00AF030
:107E9A0010C00BF011C00CF0190E05D0D8900C329E
:107EAA000B320A320932E82EF9D7095014260A5041
:107EBA0015220B5016220C50172210C011F00FC0B9
:107ECA0010F00EC00FF00E6A125013C009F00A6AC1
:107EDA000926000E0A22820E0924186EFF0E0A20B5
:107EEA00196E0FD0D890143615361636173611BEBD
:107EFA001480D8900E360F36103611361806D8A0D0
:107F0A00190616AEEFD7000E126E11AE17D0FF0E7D
:107F1A000E14096EFF0E0F140A6EFF0E10140B6E6C
:107F2A007F0E11140C6E09500A100B100C10D8B4E5
:107F3A0003D0010E126E02D014B0FBD71250D8B47F
:107F4A001FD0010E1426000E15221622172217A082
:107F5A0017D014C009F015C00AF016C00BF017C0EC
:107F6A000CF00C340C320B320A32093209C014F00C
:107F7A000AC015F00BC016F00CC017F0184A192ADF
:107F8A0019BE0DD0195003E11828D8A008D0000E48
:107F9A00146E000E156E800E166E7F0E20D019BE5E
:107FAA0005D019500EE11804D8B00BD0000E146E8B
:107FBA00000E156E000E166E000E176E000E0D6E78
:107FCA000FD018C013F0FF0E1416FF0E15167F0EF1
:107FDA001616000E171613B0168ED8901330176E99
:107FEA000D50171214C001F015C002F016C003F0AC
:067FFA0017C004F01200A4
:020000040020DA
:08000000FFFFFFFFFFFFFFFF00
:020000040030CA
:0E00000000001F1EFF8181FF0FC00FE00F40A8
:00000001FF
