:020000040000FA
:0400000007EF00F016
:1000080003822DED00F03AEF00F09368FE0E946E37
:100018009568F28EF29CF19CF288F292070EB41267
:10002800D59EF18E8BB003D0026A022A01D0026AF3
:100038008B500218FE0B02188B6E820E026EDE0EBB
:10004800E82EFED7022EFCD70104D8A4EBD7030074
:10005800E9D70600F2A208D00150D8A402D0010EB8
:1000680001D0000E016EF29203921100016A039012
:080078000392000109EF00F002
:020000040020DA
:08000000FFFFFFFFFFFFFFFF00
:020000040030CA
:0E0000000000191EFF0581FF0FC00FE00F402A
:00000001FF
