:020000040000FA
:04000000C5EF3FF019
:107F8A000001C8EF3FF0010E016E010E026E010EF4
:107F9A00036E000E046E010E056E000ED7EC3FF064
:107FAA00898AFFD7066EC150F00B0B09C16E0650C5
:107FBA00D8A404D092809286929803D09282928416
:107FCA00929A01B002D0B49C01D0B48C02B002D013
:107FDA00B49E01D0B48E03B002D0B49801D0B48854
:107FEA0004B002D0B49A01D0B48AB4500518F80B80
:067FFA000518B46E120030
:020000040020DA
:08000000FFFFFFFFFFFFFFFF00
:020000040030CA
:0E00000000001F1EFF8181FF0FC00FE00F40A8
:00000001FF
