:020000040000FA
:0400000007EF00F016
:0A0008004F82D3ED06F0EBEF06F097
:1008000000456C20616E67756C6F206D6178696D55
:100810006F20657320313830207920656C206D6938
:100820006E696D6F20300A0D00496E6772657361E5
:1008300020656C20616E67756C6F20656E20677235
:1008400061646F730A0D0000000E3F6E000E3E6E75
:10085000000E386E000E376E02D0314A322A010E79
:100860003D6E31C0D9FF32C0DAFF200EDE18D8B499
:1008700017D0F70E336EFF0E346E31C0D9FF32C081
:10088000DAFFDF50356E366A335035263450362263
:10089000365004E1050E355CD8A002D0000E3D6E46
:1008A0003DC039F03A6A39503A10D8B408D0D5D79B
:1008B000000E386E010E376E314A322A2ED031C00A
:1008C000D9FF32C0DAFFDF50336E346A3450000A89
:1008D000D8A423D033502B0AD8B4EED7060AD8B404
:1008E000E7D71BD03EC02AF03FC02BF0000E2D6E84
:1008F0000A0E2C6E14EC07F031C0D9FF32C0DAFFBB
:10090000DF50336E33502A5E000E2B5A300E2A24ED
:100910003E6E000E2B203F6ECFD7D00E336EFF0EF3
:10092000346E31C0D9FF32C0DAFFDF50356E366A1F
:100930003350352634503622365006E10A0E355CE7
:10094000D8B002D0010E01D0000E3B6E3C6A3B5085
:100950003C10D8A4C7D737503810D8A40DD03EC00B
:1009600033F03FC034F0331E341E334A342A33C0D0
:1009700031F034C032F012003EC031F03FC032F0EE
:10098000120036C0D9FF37C0DAFFDECFF6FFDDCF69
:10099000F7FF0800F550250AD8A440D036C0D9FF8B
:1009A00037C0DAFFDE2A000EDD22000E246E000EB4
:1009B000236E23C027F024C028F02568266836C09F
:1009C000D9FF37C0DAFFDECFF6FFDDCFF7FF080033
:1009D000F550250AD8A416D036C0D9FF37C0DAFFA3
:1009E000DE2A000EDD22000E2C6E250E2B6E34C08A
:1009F0002DF035C02EF0ACEC05F0000E356E010E7A
:100A0000346E120036C0D9FF37C0DAFFDE2A000E7E
:100A1000DD22000E356E000E346E120036C0D9FF96
:100A200037C0DAFFDECFF6FFDDCFF7FF0800F55065
:100A30002B6E2C6A34C02DF035C02EF0ACEC05F0D6
:100A400036C0D9FF37C0DAFFDE2A000EDD22D5D747
:100A50009590000E8C6E000E376E090E386E3D0EAE
:100A6000396E000E3A6E800E3B6E250E3C6E000E07
:100A70003D6E000E3E6EE2EC05F027EC07F083A21F
:100A8000FED7290E426E080E436E01EC07F0480EA9
:100A90002A6E000E2B6EA0EC06F0480E316E000E92
:100AA000326E24EC04F031C04CF032C04DF04D50A9
:100AB00004E1B50E4C5CD8A007D0010E426E080EC2
:100AC000436E01EC07F0DBD74CC037F04DC038F077
:100AD00061EC06F0D4D7000E326E000E336E000EBD
:100AE000346E000E356E2E502F1030103110D8B4E9
:100AF0002AD0010E366E06D0D8902E362F363036DC
:100B00003136362A31AEF8D7D890323633363436CD
:100B100035362E502A5C2F502B5830502C583150DF
:100B20002D58D8A009D02E502A5E2F502B5A305065
:100B30002C5A31502D5A3280D890313230322F32E7
:100B40002E32362EE1D732C02AF033C02BF034C01B
:100B50002CF035C02DF012002D502E10D8B404D03A
:100B60002D502E10D8A404D02B5034EC07F01200D6
:100B700020EE04F02D50D9262E50DA22DE50DE1061
:100B8000D8B416D020EE04F02D50D9262E50DA22FB
:100B900010EE02F02D50E1262E50E222DE50E65CEF
:100BA000E650800A336EDE50800A3358D8B0120007
:100BB00020EE02F02D50D9262E50DA22DE2A000E29
:100BC000DD221200949C948EAC98AC84B89637C009
:100BD0002AF038C02BF039C02CF03AC02DF03BC0C1
:100BE0003FF03CC040F03DC041F03EC042F0040E3A
:100BF000D8903F36403641364236E82EF9D73FC0CE
:100C00002EF040C02FF041C030F042C031F06BEC0C
:100C100005F02A04AF6EAB8EAC8AAB8812003CC0E4
:100C200040F03DC041F0000E226E000E216E12D049
:100C30003AC034F03BC035F0400E366E000E376ED1
:100C40003EC038F03FC039F0C1EC04F034502126EA
:100C50003550222240C0F6FF41C0F7FF0800F55092
:100C60000009D8A4E5D721C03AF022C03BF0120019
:100C7000000E356E000E346E32503310D8B41CD0D6
:100C8000010E366E04D0D89032363336362A33AE63
:100C9000FAD7D890343635363250305C335031582C
:100CA000D8A005D03250305E3350315A3480D890BD
:100CB00033323232362EEDD734C030F035C031F019
:100CC0001200385007E11F0E375CD8B003D0010E78
:100CD0004E6E120037C02AF038C02BF0000E2D6E79
:100CE000090E2C6E14EC07F02AC030F02BC031F046
:100CF000000E336EB40E326E38EC06F030504E6E8D
:100D00001200010E306E200E2A182B10D8B414D009
:100D1000F70E2C6EFF0E2D6E2AC02EF02BC02FF07A
:100D20002C502E262D502F222F5004E1050E2E5C24
:100D3000D8A002D0000E306E30C02AF02B6A12000C
:100D40009EAAFED7AECF2CF00D0E2C18D8B408D02A
:100D50002AC0D9FF2BC0DAFF2CC0DFFF2A4A2B2A7A
:100D60000D0E2C18D8A4ECD72AC0D9FF2BC0DAFF5F
:100D7000000EDF6E1200D00E2C6EFF0E2D6E2AC0FC
:100D80002EF02BC02FF02C502E262D502F222F501E
:100D900006E10A0E2E5CD8B002D0010E01D0000E82
:100DA0002A6E2B6A120006009EA013D0650E2960E1
:100DB00002D0292A02D0000E296E29504E5CD8A0FC
:100DC00002D08C8001D08C909E90FF0ECF6EE90EE9
:100DD000CE6E4F921100740EF66E0E0EF76E000E70
:100DE000F86E0900F5CF4EF000EE01F0290EEE6A24
:100DF000E806FDE14F904F92000EF86E000128EFDB
:100E000005F0440E466E000E476E000E3A6E000E60
:100E10003B6E42C03CF043C03DF0460E3E6E000EBD
:100E20003F6E0FEC06F012002A502C02F3CF2EF08A
:100E3000F4CF2FF02A502D02F3502F262B502C02E6
:100E4000F3502F262EC02AF02FC02BF01200CD8E8B
:100E5000300ECD12F28EF28C9D809E90FF0ECF6EE2
:100E6000E60ECE6ECD8012002A6EACA2FED72AC04E
:050E7000ADFF120001BE
:020000040020DA
:08000000FFFFFFFFFFFFFFFF00
:020000040030CA
:0E00000000001F1EFF8181FF0FC00FE00F40A8
:00000001FF
