:04000000CFEF3AF014
:10759E00000EF86E0001AEEF3BF0056E05C003F075
:1075AE00800EF3EC3AF01200C5CF01F01F0E01165B
:1075BE00D8A4FAD7C7A41200F7D7026E3F0EC7168B
:1075CE00000EC66E000EC56E0250C6120150C712D6
:1075DE0093829380C68A1200046EC580C5B0FED712
:1075EE00780E53EC3BF0045053EC3BF0035053EC4D
:1075FE003BF0C584C5A41200FDD7016E000E026ECD
:10760E0009D0000E036E630E036401D002D0032A6C
:10761E00FAD7022A0150025CD8B01200F2D7000E3F
:10762E00096E070E096401D0120009C005F0000EA4
:10763E0030EC3BF0000E086E830E086401D007D0CC
:10764E00010E036E400EF3EC3AF0082AF5D7092A24
:10765E00E8D7076E0550B00F036E800EF3EC3AF0CC
:10766E000750080DF3CF06F00F0E06160628036E10
:10767E00800EF3EC3AF00750080D040E066EF4344B
:10768E00F432F332062EFBD7F3500F0B100F036EAE
:10769E00800EF3EC3AF01200026E02C0C9FFC6BEB5
:1076AE001200C6500F0B080AD8B40CD0C6500F0BE0
:1076BE000B0AD8B407D0C6889EA6FED7C7B4120050
:1076CE00C7501200C6500F0B080AD8B405D0C650CA
:1076DE000F0B0B0AD8A41200C7B0FED7DBEC3AF0A2
:1076EE00C5501200000E0C6E070E0C6401D0120075
:1076FE000CC005F0000E30EC3BF00C50800DF3CFBB
:10770E000AF0F4CF0BF00ED0F30E0A24F66E780EBC
:10771E000B20F76E0800F5CF03F0400EF3EC3AF0B5
:10772E000A4A0B2A0C50086E096A070ED8900836C2
:10773E000936E82EFBD7800E0826000E09220850C7
:10774E000A5C09500B58D8A0DFD70C2ACDD7000EF3
:10775E00016E080EE4EC3AF0E6EC3BF0C80E00D0F9
:10776E00E82EFDD716EC3BF0040E086EF30E096EF4
:10777E007F0E0A6E000E21EC3CF0060E146E130EF8
:10778E00136EAE0EE82EFED7132EFCD7142EFAD79C
:10779E0016EC3BF079EC3BF0A70ED4EC3AF01A0E57
:1077AE00146E5E0E136E6E0EE82EFED7132EFCD7E1
:1077BE00142EFAD700D0A60ED4EC3AF0FFD7AE0EA8
:1077CE00036E800EF3EC3AF02E0E036E800EF3EC89
:1077DE003AF0A40E036E800EF3EC3AF0200E036E18
:1077EE00800EF3EC3AF0020E036E800EF3EC3AF0DC
:1077FE00A10E036E800EF3EC3AF0C80E036E800EEF
:10780E00F3EC3AF0A60E036E800EF3EC3AF0810E16
:10781E00036E800EF3EC3AF0FF0E036E800EF3EC67
:10782E003AF0AF0E036E800EF3EC3AF0140E04EC49
:10783E003BF01200116E08C005F0115030EC3BF019
:10784E0047D0000E126E070E126401D033D01250C4
:10785E00010D000E0B6EFF0E0C6E09C0F6FF0AC076
:10786E00F7FF0800F5500D6E0E6AD8900D360E36E5
:10787E00D8900D360E36D8900D360E360B500D268E
:10788E000C500E22F30E0F6E7C0E106E0D500F2646
:10789E000E501022F3500F26F45010220FC0F6FF98
:1078AE0010C0F7FF0800F5CF03F0400EF3EC3AF0EE
:1078BE00122AC9D7094A0A2A112A0F0E116408D0B2
:1078CE00082A000E116E08C005F0115030EC3BF086
:1078DE0009C0F6FF0AC0F7FF0800F5500009D8B43A
:1078EE001200AFD7000000000000000000000000F2
:1078FE00000000000000000000000000000000007A
:10790E000000000000000000000000000000000069
:10791E000000000000000000000000000000000059
:10792E000000000000000000000000000000000049
:10793E000000000000000000000000000000000039
:10794E000000000000000000000000000000000029
:10795E000000000000000000000000000000000019
:10796E000000000000000000000000000000000009
:10797E00000000808080C0C0C0C0C0C0C0C0C08039
:10798E0080800000000000000000000000000000E9
:10799E0000000000000000000000000000000000D9
:1079AE0000000000000000000000000000000000C9
:1079BE0000000000000000000000000000000000B9
:1079CE0000000000000000000000000000000000A9
:1079DE000000000000000000000000000000000099
:1079EE000000000000000000000080E0F0F8FCFE47
:1079FE00FE7F7F7F3F3F3F3F3F7F7F7F7F7F7FFFCA
:107A0E00FFFFFFFFFEFEFCF8F0E0C00000000000EC
:107A1E000000000000808000000000000000000058
:107A2E000000000000000000000000000000000048
:107A3E000000000000000000000000000000000038
:107A4E000000000000000000000000000000808028
:107A5E000000000000000000008080000000000018
:107A6E000000000000000000E0E7E7E3C3C2C280B0
:107A7E0000000000000080808080000000000101F6
:107A8E000101010101010181818183D3F000000018
:107A9E000008FEFF070303031F1E1C0001073FFE25
:107AAE00F0F8FF1F03000000FFFF03030387FFFE34
:107ABE007C0000FFFFFF83838387FFFE000000FF33
:107ACE00FFFF83838383830300003C7EFFE3C38336
:107ADE00071F1E0000003E7FF7C3C3831F1F1C003D
:107AEE0001000000000000001FFFFFFFFFFFFFFF6F
:107AFE00FFFFFFFFFFFFFFFFFEFEFE7E180082C6A8
:107B0E00E2F0F8FCFCFCFDFCFCFCFCFC3C00000084
:107B1E0000107FFFC0C0C0C0F87838000000000120
:107B2E00FFFF000000000000FFFF0303030303013B
:107B3E00000000FFFFFF03030F7FFDE0000000FFCA
:107B4E00FFFFC1C1C1C1C1C0000038F8F8C1C3C335
:107B5E00E7FE7C00000078F8E0C1C3C7FFFE7C00A2
:107B6E000000000000000000000003070F0F2F6F41
:107B7E006FEFEFEFE7E7E7E3E3E1E0E0E0E3E3E316
:107B8E00E3E3E3E363632303030303000000000066
:107B9E0000002020010131213000002020000020B3
:107BAE002101000000000000012100602000000003
:107BBE000030000101010010007001010000000101
:107BCE0001010101013121310000000000012121DC
:107BDE0011003020100050007001114110400000C3
:107BEE000000000000000000000000000000000087
:107BFE000000000101010303030303030303030158
:107C0E000101000000000000000000000000000064
:107C1E000000000000000000000000000000000056
:107C2E000000000000000000000000000000000046
:107C3E000000000000000000000000000000000036
:107C4E000000000000000000000000000000000026
:107C5E000000000000000000000000000000000016
:107C6E000000000000000000000000000000000006
:107C7E0000000000000000000000000000000000F6
:107C8E0000000000000000000000000000000000E6
:107C9E0000000000000000000000000000000000D6
:107CAE0000000000000000000000000000000000C6
:107CBE0000000000000000000000000000000000B6
:107CCE0000000000000000000000000000000000A6
:107CDE000000000000000000000000000000000096
:107CEE000000000000000000000000000000005F27
:107CFE000000000000000007000700000000147FD5
:107D0E00147F14000000242A7F2A1200000023137F
:107D1E00086462000000364955225000000000053C
:107D2E000300000000001C22410000000000412260
:107D3E001C0000000000082A1C2A08000000080889
:107D4E003E0808000000A0600000000000000808C7
:107D5E00080808000000606000000000000020100D
:107D6E000804020000003E5149453E00000000425A
:107D7E007F40000000006251494946000000224148
:107D8E004949360000001814127F100000002745E4
:107D9E004545390000003C4A494930000000017158
:107DAE00090503000000364949493600000006491E
:107DBE0049291E000000003636000000000000AC0D
:107DCE006C00000000000814224100000000141492
:107DDE0014141400000041221408000000000201D7
:107DEE00510906000000324979413E0000007E092B
:107DFE0009097E0000007F494949360000003E41D6
:107E0E004141220000007F4141221C0000007F49B9
:107E1E004949410000007F090909010000003E4167
:107E2E004151720000007F0808087F000000417F6A
:107E3E004100000000002040413F010000007F088B
:107E4E001422410000007F404040400000007F02AD
:107E5E000C027F0000007F0408107F0000003E41EE
:107E6E0041413E0000007F090909060000003E4125
:107E7E0051215E0000007F091929460000002649A5
:107E8E0049493200000001017F01010000003F401E
:107E9E0040403F0000001F2040201F0000003F40D8
:107EAE0038403F0000006314081463000000030410
:107EBE0078040300000061514945430000007F41F2
:107ECE0041000000000002040810200000004141A3
:107EDE007F00000000000402010204000000808008
:107EEE008080800000000102040000000000205489
:107EFE005454780000007F48444438000000384451
:107F0E00442800000000384444487F0000003854E4
:107F1E00545418000000087E09020000000018A446
:107F2E00A4A47C0000007F08040478000000007DFB
:107F3E0000000000000080847D00000000007F1023
:107F4E00284400000000417F4000000000007C0437
:107F5E001804780000007C08047C000000003844FF
:107F6E00443800000000FC242418000000001824EF
:107F7E0024FC00000000007C0804000000004854AF
:107F8E00542400000000047F4400000000003C4028
:107F9E00407C000000001C2040201C0000003C40E3
:107FAE0030403C00000044281028440000001CA073
:107FBE00A07C000000004464544C440000000836CD
:107FCE00410000000000007F00000000000041366C
:107FDE00080000000000020101020100000002057D
:107FEE000502000000504943203138463435353003
:027FFE00000081
:020000040020DA
:08000000FFFFFFFFFFFFFFFF00
:020000040030CA
:0E00000000001F1EFF8181FF0FC00FE00F40A8
:00000001FF
