:020000040000FA
:04000000A3EF3FF03B
:107F46000001B5EF3FF09EAAFED7AECF01F001507B
:107F56001200948E949CAC84CF0EAF6EAC8AAB8824
:107F6600AB8E1200949094929494000E8B6E000E39
:107F7600016E090E026E3D0E036E000E046EB00E0B
:107F8600056E040E066E000E076E000E086EACEC53
:107F96003FF0A6EC3FF00A6E420E0A18D8A40BD0AA
:107FA6008BB003D0096A092A01D0096A8B500918D7
:107FB600FE0B09188B6E470E0A18D8A40CD08BB28C
:107FC60003D0096A092A01D0096A09468B500918A3
:107FD600FD0B09188B6E590E0A18D8A4DAD78BB484
:107FE60003D0096A092A01D0096A094609468B5055
:0A7FF6000918FB0B09188B6ECCD79D
:020000040020DA
:08000000FFFFFFFFFFFFFFFF00
:020000040030CA
:0E00000000001F1EFF8181FF0FC00FE00F40A8
:00000001FF
