:020000040000FA
:04000000FFEF39F0E5
:1073F400036E03500AEC3AF01200000EF86E00011E
:10740400B2EF3AF0026E8C8E025010EC3AF0120099
:10741400026E8C9E025010EC3AF01200016E01C014
:10742400C9FFC80E00D0E82EFDD71200046E949E4A
:107434009380939204B002D0C79E01D0C78E01B04E
:1074440002D0C79C01D0C78C02B002D0C69801D02C
:10745400C688C6500318F00B0318C66EC68A1200FD
:10746400076E0350B00F0AEC3AF00750080DF350C2
:107474000F0B0AEC3AF00750080DF3CF04F0F4CFE9
:1074840005F0040E066E053405320432062E45EF6F
:107494003AF004500F0B100F0AEC3AF01200000EF1
:1074A400096E09C003F0000E32EC3AF0000E086ECB
:1074B400000E04EC3AF0082A7F0E086464EF3AF0F8
:1074C40066EF3AF05AEF3AF0092A070E09646DEFB5
:1074D4003AF06FEF3AF053EF3AF01200000E0C6EF0
:1074E400070E0C6478EF3AF07AEF3AF07CEF3AF05A
:1074F400B1EF3AF00CC003F0000E32EC3AF00C504D
:10750400800DF3CF0AF0F4CF0BF095EF3AF0B30E01
:107514000A24F66E770E0B20F76E0800F55004EC83
:107524003AF00A4A0B2A0C50086E096A070ED890E2
:1075340008360936E82E99EF3AF0800E0826000E38
:10754400092208500A5C09500B58D8A0ACEF3AF055
:10755400AEEF3AF089EF3AF00C2A72EF3AF01200EB
:10756400959E959C000E016E010E026E000E036E38
:10757400000E18EC3AF00D0E136EFC0EE82EFED73A
:10758400132EFCD76DEC3BF051EC3AF0040E086E70
:10759400F30E096E7F0E0A6E000E0BEC3BF00B0E21
:1075A400146E260E136E5E0EE82EFED7132EFCD735
:1075B400142EFAD751EC3AF070EC3AF0000E156E36
:1075C400A70EFAEC39F0060E146E130E136EAE0EFF
:1075D400E82EFED7132EFCD7142EFAD7A60EFAECFB
:1075E40039F0060E146E130E136EAE0EE82EFED78F
:1075F400132EFCD7142EFAD7152A090E156405EF9D
:107604003BF007EF3BF0E2EF3AF007EF3BF000EF1F
:1076140000F0116E08C003F0115032EC3AF05EEF46
:107624003BF0000E126E000E0B6EFF0E0C6E09C0C6
:10763400F6FF0AC0F7FF0800F5500D6E0E6AD890E9
:107644000D360E36D8900D360E36D8900D360E36D1
:10765400B30E0F6E7B0E106E0D500F260E501022BF
:1076640012500F26000E10220B500F260C50102221
:107674000FC0F6FF10C0F7FF0800F55004EC3AF015
:10768400122A070E126449EF3BF04BEF3BF015EF63
:107694003BF0094A0A2A112A0E0E116454EF3BF0FA
:1076A40056EF3BF05EEF3BF0000E116E082A08C067
:1076B40003F0000E32EC3AF009C0F6FF0AC0F7FFFF
:1076C4000800F5500009D8A46AEF3BF06CEF3BF0DA
:1076D40013EF3BF012008C8C070E036E7D0EE82E28
:1076E400FED7032EFCD700F08C9C0D0E036EFC0E0F
:1076F400E82EFED7032EFCD78C8C1A0E036EF80EE0
:10770400E82EFED7032EFCD700D0AE0E0AEC3AF0DA
:10771400A80E0AEC3AF03F0E0AEC3AF0D30E0AEC4B
:107724003AF0000E0AEC3AF0400E0AEC3AF0A10EE0
:107734000AEC3AF0C80E0AEC3AF0DA0E0AEC3AF027
:10774400120E0AEC3AF0810E0AEC3AF0FF0E0AEC43
:107754003AF0A40E0AEC3AF0A60E0AEC3AF0D50E72
:107764000AEC3AF0800E0AEC3AF0210E0AEC3AF0F8
:10777400000E0AEC3AF07F0E0AEC3AF0220E0AEC04
:107784003AF0000E0AEC3AF0070E0AEC3AF0200E3A
:107794000AEC3AF0020E0AEC3AF08D0E0AEC3AF0DA
:1077A400140E0AEC3AF0AF0E0AEC3AF012000000A4
:1077B40000000000000000000000000000000000C5
:1077C40000000000000000000000000000000000B5
:1077D40000000000000000000000000000000000A5
:1077E4000000000000000000000000000000000095
:1077F4000000000000000000000000000000000085
:107804000000000000000000000000000000000074
:107814000000000000000000000000000000000064
:107824000000000000000000000000000000000054
:1078340000000000000000000000000000808080C4
:10784400C0C0C0C0C0C0C0C0C080808000000000F4
:107854000000000000000000000000000000000024
:107864000000000000000000000000000000000014
:107874000000000000000000000000000000000004
:1078840000000000000000000000000000000000F4
:1078940000000000000000000000000000000000E4
:1078A40000000000000000000000000000000000D4
:1078B4000000000080E0F0F8FCFEFE7F7F7F3F3F89
:1078C4003F3F3F7F7F7F7F7F7FFFFFFFFFFFFEFE06
:1078D400FCF8F0E0C00000000000000000000080A0
:1078E4008000000000000000000000000000000014
:1078F4000000000000000000000000000000000084
:107904000000000000000000000000000000000073
:107914000000000000000000808000000000000063
:107924000000008080000000000000000000000053
:107934000000E0E7E7E3C3C2C280000000000000EB
:10794400808080800000000001010101010101012B
:107954000181818183D3F00000000008FEFF07034A
:1079640003031F1E1C0001073FFEF0F8FF1F030066
:107974000000FFFF03030387FFFE7C0000FFFFFFFF
:1079840083838387FFFE000000FFFFFF83838383DD
:10799400830300003C7EFFE3C383071F1E00000037
:1079A4003E7FF7C3C3831F1F1C00010000000000BB
:1079B40000001FFFFFFFFFFFFFFFFFFFFFFFFFFFB1
:1079C400FFFFFEFEFE7E180082C6E2F0F8FCFCFC1F
:1079D400FDFCFCFCFCFC3C00000000107FFFC0C070
:1079E400C0C0F878380000000001FFFF000000006C
:1079F4000000FFFF030303030301000000FFFFFF78
:107A040003030F7FFDE0000000FFFFFFC1C1C1C100
:107A1400C1C0000038F8F8C1C3C3E7FE7C00000011
:107A240078F8E0C1C3C7FFFE7C000000000000003E
:107A34000000000003070F0F2F6F6FEFEFEFE7E772
:107A4400E7E3E3E1E0E0E0E3E3E3E3E3E3E3636309
:107A540023030303030000000000000020200101B1
:107A6400312130000020200000202101000000000E
:107A7400000001210060200000000030000101012D
:107A84000010007001010000000101010101013139
:107A940021310000000000012121110030201000DC
:107AA400500070011141104000000000000000006F
:107AB40000000000000000000000000000010101BF
:107AC4000303030303030303030101010000000094
:107AD40000000000000000000000000000000000A2
:107AE4000000000000000000000000000000000092
:107AF4000000000000000000000000000000000082
:107B04000000000000000000000000000000000071
:107B14000000000000000000000000000000000061
:107B24000000000000000000000000000000000051
:107B34000000000000000000000000000000000041
:107B44000000000000000000000000000000000031
:107B54000000000000000000000000000000000021
:107B64000000000000000000000000000000000011
:107B74000000000000000000000000000000000001
:107B840000000000000000000000000000000000F1
:107B940000000000000000000000000000000000E1
:107BA40000000000000000000000000000000000D1
:107BB4000000000000000000005F00000000000062
:107BC4000007000700000000147F147F1400000069
:107BD400242A7F2A12000000231308646200000094
:107BE4003649552250000000000503000000000043
:107BF4001C2241000000000041221C000000000083
:107C0400082A1C2A0800000008083E080800000092
:107C1400A060000000000000080808080800000038
:107C24006060000000000000201008040200000052
:107C34003E5149453E00000000427F4000000000E4
:107C4400625149494600000022414949360000007A
:107C54001814127F10000000274545453900000024
:107C64003C4A494930000000017109050300000045
:107C74003649494936000000064949291E000000DA
:107C8400003636000000000000AC6C00000000006C
:107C940008142241000000001414141414000000FD
:107CA40041221408000000000201510906000000EE
:107CB400324979413E0000007E0909097E00000036
:107CC4007F494949360000003E41414122000000FD
:107CD4007F4141221C0000007F49494941000000C6
:107CE4007F090909010000003E4141517200000072
:107CF4007F0808087F000000417F41000000000069
:107D04002040413F010000007F0814224100000090
:107D14007F404040400000007F020C027F000000D2
:107D24007F0408107F0000003E4141413E000000F6
:107D34007F090909060000003E4151215E00000050
:107D44007F091929460000002649494932000000EC
:107D540001017F01010000003F4040403F0000005E
:107D64001F2040201F0000003F4038403F0000001B
:107D74006314081463000000030478040300000083
:107D840061514945430000007F414100000000006B
:107D9400020408102000000041417F0000000000A0
:107DA4000402010204000000808080808000000042
:107DB4000102040000000000205454547800000024
:107DC4007F48444438000000384444280000000040
:107DD400384444487F0000003854545418000000CC
:107DE400087E09020000000018A4A4A47C0000007E
:107DF4007F08040478000000007D000000000000FB
:107E040080847D00000000007F10284400000000F2
:107E1400417F4000000000007C041804780000004A
:107E24007C08047C00000000384444380000000052
:107E3400FC24241800000000182424FC0000000086
:107E4400007C080400000000485454240000000092
:107E5400047F4400000000003C40407C000000001F
:107E64001C2040201C0000003C4030403C0000002E
:107E740044281028440000001CA0A07C000000003E
:107E84004464544C440000000836410000000000E3
:107E9400007F0000000000004136080000000000E0
:107EA40002010102010000000205050200000000B9
:107EB40000000000000000008080808000000000BE
:107EC40000000000000000000000000000000000AE
:107ED400000000000000000000000000000000009E
:107EE400000000000000000000000000000000008E
:107EF40080B0988C0E0F0707070F0F0F1F1F1E1E51
:107F04001C18800000E0301030600070C0C03000E9
:107F1400F0301030E000F03010B0C000F03010103D
:107F24000000E09030600040F0103060000000007D
:107F3400031F3F3FBFBEBFBFBF9E8CB0929C9E9E9F
:107F44001D3E0E00000F1810980C00001F1D0000AD
:107F54001F1B030101001F01031F10001F111191BA
:107F640000001C11130E00041C111B0E0000000065
:107F740000000000000101010103030101010000F0
:107F840000000000000000000000000000000000ED
:107F940000000000000000000000000000000000DD
:107FA40000000000000000000000000000000000CD
:107FB40000000000000000000000000000000000BD
:107FC40000000000000000000000000000000000AD
:107FD400000000000000000000000000000000009D
:107FE400000000000000000000000000000000503D
:0C7FF40049432031384634353530000058
:020000040020DA
:08000000FFFFFFFFFFFFFFFF00
:020000040030CA
:0E00000000001F1EFF8181FF0FC00FE00F40A8
:00000001FF
