:0400000051EF3EF08E
:107CA2000001F9EF3EF0016E00D0ACA2FED701C098
:107CB200ADFF1200046E9380938203C001F0045062
:107CC2006DEC3EF0120000D0C5CF01F01F0E011680
:107CD200D8B4C7B4F9D71200026E3F0EC716000E11
:107CE200C66E000EC56E0250C6120150C7129382B4
:107CF2009380C68A1200C6500F0B080AD8B405D06A
:107D0200C6500F0B0B0AD8A402D0C58600D0C7A05C
:107D1200FED7C95000D012000AD002C0D9FF03C05A
:107D2200DAFFDF5054EC3EF0024A032A00D002C0D0
:107D3200D9FF03C0DAFFDF50D8A4EFD71200026EDA
:107D420002C0C9FFC6BE26D001D024D0C6500F0B38
:107D5200080AD8B40DD0C6500F0B0B0AD8B408D0FD
:107D6200C68800D09EA6FED7C7B414D0C75012D082
:107D7200C6500F0B080AD8B407D0C6500F0B0B0A17
:107D8200D8B402D007D000D0C7B0FED764EC3EF022
:107D9200C55000D01200949C948EAC98AC84B896D6
:107DA2000EC001F00FC002F010C003F011C004F0C9
:107DB20012C016F013C017F014C018F015C019F055
:107DC200040ED8901636173618361936E82EF9D71B
:107DD20016C005F017C006F018C007F019C008F069
:107DE20037EC3FF00104AF6EAB8EAC8AAB88120069
:107DF200000E0E6E090E0F6E3D0E106E000E116E0D
:107E0200800E126E250E136E000E146E000E156E8D
:107E1200CCEC3EF0000E036E080E5BEC3EF0000E62
:107E2200046E000E036E000E066E0A0E056E1B0E29
:107E3200076E000E086E7DEC3FF000D01B0E026E46
:107E4200000E036E8DEC3EF0000E286E090E2864C3
:107E520001D0F4D7820E1A6EDE0EE82EFED71A2E4D
:107E6200FCD7282AF3D7EAD700EF00F0000E096EFC
:107E7200000E0A6E000E0B6E000E0C6E0550061000
:107E820007100810D8B42FD0010E0D6E07D0D8906D
:107E920005360636073608360D2A00D008BE02D04F
:107EA200F6D700D0D89009360A360B360C36055074
:107EB200015C065002580750035808500458D8A0D5
:107EC2000AD00550015E0650025A0750035A085064
:107ED200045A098000D0D89008320732063205329F
:107EE2000D2EE0D700D009C001F00AC002F00BC08D
:107EF20003F00CC004F01200000E0D6E64EC3EF0B4
:107F0200C58000D0C5B0FED7A00EA0EC3EF0045054
:107F1200A0EC3EF00350A0EC3EF0C58200D0C5B20A
:107F2200FED7A10EA0EC3EF037D00D50010DF3505C
:107F32000724D96EF4500820DA6E7CEC3EF0DF6E36
:107F4200070E096E7D0EE82EFED7092EFCD700F033
:107F5200FF0E096EFF0E0A6E05C00BF006C00CF094
:107F620009500B260A500C220B50035C0C5004588B
:107F7200D8B007D0C59AC58800D0C5A809D0FDD70A
:107F820007D0C58AC58800D0C5A802D0FDD700D0C9
:107F9200034A042A0D2A00D00550035C06500458F7
:107FA200D8A0C3D7C58400D0C5B4FED70D50010DEB
:107FB200F3500724D96EF4500820DA6E0A0EDF6EF1
:107FC2000D50096E0A6A010E0926000E0A22095096
:107FD2000724D96E0A500820DA6E0D0EDF6E0D509E
:107FE200096E0A6A020E0926000E0A2209500724A7
:0E7FF200D96E0A500820DA6E000EDF6E120003
:020000040020DA
:08000000FFFFFFFFFFFFFFFF00
:020000040030CA
:0E00000000001F1EFF8181FF0FC00FE00F40A8
:00000001FF
