:020000040000FA
:0400000007EF00F016
:100008001F8209ED01F025EF01F0000E066E04BE17
:1000180012EF00F010EF00F018EF00F0036C041E70
:10002800D8B0042A010E066E02BE1FEF00F01DEFC5
:1000380000F025EF00F0016C021ED8B0022A010E74
:10004800061A000E086E000E076E03500410D8B48E
:1000580030EF00F032EF00F05AEF00F0010E056EBD
:100068003AEF00F0D89003360436052A04AE3FEF85
:1000780000F041EF00F036EF00F0D8900736083670
:100088000350015C04500258D8A04DEF00F04FEF28
:1000980000F054EF00F00350015E0450025A07804C
:1000A800D89004320332052E41EF00F00650D8B440
:1000B80060EF00F062EF00F066EF00F0076C081EDA
:1000C800D8B0082A07C001F008C002F01200000EDC
:1000D8000E6E0ABE74EF00F072EF00F07AEF00F0D7
:1000E800096C0A1ED8B00A2A010E0E6E0CBE81EFEA
:1000F80000F07FEF00F085EF00F00B6C0C1ED8B01D
:100108000C2A0B500C10D8B48CEF00F08EEF00F0D6
:10011800B2EF00F0010E0D6E96EF00F0D8900B369E
:100128000C360D2A0CAE9BEF00F09DEF00F092EF1D
:1001380000F00B50095C0C500A58D8A0A6EF00F04C
:10014800A8EF00F0ACEF00F00B50095E0C500A5A13
:10015800D8900C320B320D2E9DEF00F00E50D8B413
:10016800B8EF00F0BAEF00F0BEEF00F0096C0A1E1D
:10017800D8B00A2A09C009F00AC00AF01200106EA5
:10018800000E046E0A0E036E10C001F0026A09EC3C
:1001980000F001C009F002C00AF0000E0C6E0A0E51
:1001A8000B6E6BEC00F009501B6E10C009F00A6A68
:1001B800000E0C6E0A0E0B6E6BEC00F009501C6EF4
:1001C800110E1C24D96EDA6A000EDA22DF508C6E0A
:1001D800800E8B6E070E0F6E7D0EE82EFED70F2E4B
:1001E800FCD700F0110E1B24D96EDA6A000EDA2251
:1001F800DF508C6E400E8B6E070E0F6E7D0EE82E54
:10020800FED70F2EFCD700F0120006009EA00FEFBD
:1002180001F011EF01F023EF01F09E901D2A0B0E63
:10022800CF6EDB0ECE6E020E1D18D8A41EEF01F0A5
:1002380020EF01F023EF01F01E2A000E1D6E1F9221
:100248001100B40EF66E020EF76E000EF86E00EE98
:1002580011F010EE0AF00900F5CFEEFFE550E1507D
:10026800FAE11E6A1D6A1F901F9200013CEF01F01F
:10027800000E956E3F0E946E000E8C6E000E8B6E07
:100288004DEC01F01E50C3EC00F046EF01F007EF13
:1002980000F0CD8ECD88CD8ACD80F28EF28C9D80F7
:1002A8009E900B0ECF6EDB0ECE6E1200FC60DAF263
:0602B80066B6BEE0FEF692
:020000040020DA
:08000000FFFFFFFFFFFFFFFF00
:020000040030CA
:0E00000000001F1EFF8381FF0FC00FE00F40A6
:00000001FF
