:020000040000FA
:04000000B2EF3FF02C
:107F64000001C4EF3FF0016EACA2FED701C0ADFF2B
:107F74001200948E949CAC84CF0EAF6EAC8AAB8806
:107F8400AB8E1200000E016E090E026E3D0E036EE2
:107F9400000E046EB00E056E040E066E000E076E23
:107FA400000E086EBBEC3FF0060E0A6E130E096E4F
:107FB400AE0EE82EFED7092EFCD70A2EFAD7420EB3
:107FC400B5EC3FF0820E096EDE0EE82EFED7092EC8
:107FD400FCD7470EB5EC3FF0820E096EDE0EE82E9C
:107FE400FED7092EFCD7590EB5EC3FF0820E096E70
:0C7FF400DE0EE82EFED7092EFCD7E1D7E8
:020000040020DA
:08000000FFFFFFFFFFFFFFFF00
:020000040030CA
:0E00000000001F1EFF8181FF0FC00FE00F40A8
:00000001FF
