:0400000022EF38F0C3
:10704400000EF86E000137EF3BF0046E03C001F050
:10705400045037EC38F0120000D0C5CF01F01F0EF9
:107064000116D8B4C7B4F9D71200026E3F0EC71682
:10707400000EC66E000EC56E0250C6120150C71235
:1070840093829380C68A120009C001F00AC002F0FC
:10709400036A8E0E046E000E056EE5EC39F001C035
:1070A40009F002C00AF003C00BF000D01200046E15
:1070B400C58000D0C5B0FED7780EFAEC38F0045085
:1070C400FAEC38F00350FAEC38F0C58400D0C5B4BB
:1070D400FED71200016E000E026E0AD0000E036E7F
:1070E400630E036401D002D0032AFAD7022A00D027
:1070F4000150025CD8A0F2D71200C294C296C29882
:10710400C29AC150F00B0509C16EC08EC050C70BA6
:107114001009C06EC050F80B0409C06EC280060E80
:10712400E82EFED700D01200000E096E070E096487
:1071340001D014D009C005F0000EB1EC38F0000EF7
:10714400086E830E086401D007D0000E036E400E53
:1071540059EC38F0082AF5D7092AE8D71200076E47
:107164000550B00F036E800E59EC38F00750080D2F
:10717400F3CF06F00F0E06160628036E800E59ECA8
:1071840038F00750080D040E066EF434F432F3326E
:10719400062EFBD7F3500F0B100F036E800E59EC25
:1071A40038F012000A500B10D8B41DD0010E0C6E2A
:1071B40005D0D8900A360B360C2A00D00BBE02D06C
:1071C400F8D700D00A50085C0B500958D8A005D055
:1071D4000A50085E0B50095A00D0D8900B320A327C
:1071E4000C2EF0D700D008C008F009C009F0120036
:1071F400026E02C0C9FFC6BE26D001D024D0C6503C
:107204000F0B080AD8B40DD0C6500F0B0B0AD8B414
:1072140008D0C68800D09EA6FED7C7B414D0C750E5
:1072240012D0C6500F0B080AD8B407D0C6500F0BA3
:107234000B0AD8B402D007D000D0C7B0FED72EECCA
:1072440038F0C55000D01200000E066E000E056E18
:1072540003500410D8B421D0010E076E05D0D89085
:1072640003360436072A00D004BE02D0F8D700D073
:10727400D890053606360350015C04500258D8A055
:1072840006D00350015E0450025A058000D0D89005
:1072940004320332072EECD700D005C001F006C03B
:1072A40002F01200AE0E036E800E59EC38F02E0E72
:1072B400036E800E59EC38F0A40E036E800E59EC68
:1072C40038F0200E036E800E59EC38F0020E036E77
:1072D400800E59EC38F0A10E036E800E59EC38F094
:1072E400C80E036E800E59EC38F0A60E036E800EA5
:1072F40059EC38F0810E036E800E59EC38F0FF0E15
:10730400036E800E59EC38F0AF0E036E800E59EC0C
:1073140038F0140E6CEC38F01200116E08C005F051
:107324001150B1EC38F047D0000E126E070E126403
:1073340001D032D01250010D000E0B6EFF0E0C6EF8
:1073440009C0D9FF0AC0DAFFDF500D6E0E6AD8906B
:107354000D360E36D8900D360E36D8900D360E36C4
:107364000B500D260C500E22EF0E0F6E7C0E106E7D
:107374000D500F260E501022F3500F26F4501022F9
:107384000FC0F6FF10C0F7FF0800F5CF03F0400E62
:1073940059EC38F0122ACAD7094A0A2A112A0F0EC0
:1073A400116409D0082A000E116E08C005F01150AE
:1073B400B1EC38F000D009C0D9FF0AC0DAFFDF50C1
:1073C400D8A4B2D712000450D8B405D0015002108A
:1073D4000310D8A40ED0000E016E000E026E000E33
:1073E400036E53D006D0042AD890033202320132FD
:1073F40000D0000E0114066E000E0214076EFE0E7D
:107404000314086E065007100810D8B40ED0EBD73A
:107414000CD0042A010E0126000E0222000E0322C3
:10742400D89003320232013200D0000E0114066EED
:10743400000E0214076EFF0E0314086E06500710A8
:107444000810D8B408D0E5D706D00406D890013681
:107454000236033600D002BE04D0020E0460F5D713
:1074640000D004B002D0029E00D0D8900432045060
:1074740003120550D8B402D0038E00D001C001F02D
:1074840002C002F003C003F000D012001DC01FF0C0
:10749400206A216A1C341F3601E320801F50296EA4
:1074A4002950D8A402D039D063D0170E1F6E1BC048
:1074B40020F01CC021F01DC022F01F28236E04D030
:1074C400D890223221322032232EFAD72050246E33
:1074D4001C8EFF0E1B16FF0E1C16000E1D161B50D5
:1074E400256E1C50266E1D50276E286A8E0E295E4E
:1074F40029AE10D02950800A8F0FD8B003D00DD0F8
:1075040037D000D0D8902832273226322532293E6F
:10751400F9D719D0170E296411D0000E1B6E000E76
:107524001C6E000E1D6E000E1E6E22D007D0D89069
:107534002536263627362836290600D02950D8B4D1
:1075440002D0F5D700D02450D8B409D0281E271E65
:10755400261E256C000E26222722282200D025C0B4
:107564001BF026C01CF027C01DF028C01EF000D060
:1075740012000EC012F0136A146A0D34123601E3BD
:1075840013801250156E1550D8A402D00ED06CD0B2
:1075940011C012F0136A146A1034123601E3138016
:1075A40012501A6E1A50D8A407D0000E0C6E000E9A
:1075B4000D6E000E0E6E58D01A507B0F15260EC09D
:1075C4001AF011501A1A800E1A160D8E108EFF0E14
:1075D4000F16FF0E1016000E1116000E166E000E7A
:1075E400176E000E186E070E196E00D00CA007D08F
:1075F4000F501626105017221150182200D0D89080
:107604000E320D320C32D8900F3610361136192E38
:10761400EDD700D0090E196E00D00CA007D00F5082
:107624001626105017221150182200D0D8900E326E
:107634000D320C32D890183217321632192EEDD77B
:1076440000D016C001F017C002F018C003F015C036
:1076540004F01AC005F0E5EC39F001C00CF002C0EA
:107664000DF003C00EF000D01200000E036E080EE1
:1076740027EC38F054EC39F0FA0E00F0E82EFDD780
:1076840096EC38F07FEC38F000D0C28200D0C2B261
:10769400FED7C450366E356AC3503524356E000E9D
:1076A4003620366E35C009F036C00AF046EC38F0A4
:1076B40009C00CF00AC00DF00BC00EF0230E0F6EC3
:1076C400A00E106E3B0E116EBBEC3AF00CC02AF00B
:1076D4000DC02BF00EC02CF0000E0F6EC80E106EF5
:1076E400420E116E2AC00CF02BC00DF02CC00EF00F
:1076F400BBEC3AF00CC01BF00DC01CF00EC01DF02A
:1077040048EC3AF01BC031F01CC032F031C001F03B
:1077140032C002F0000E046E640E036E26EC39F0E3
:1077240001C02DF002C02EF031C008F032C009F0C3
:10773400000E0B6E640E0A6ED4EC38F008C02FF005
:1077440009C030F0330E0D6E000E0E6EF90E0F6E82
:107754007F0E106E2DC011F02EC012F02FC013F04A
:1077640030C014F0C2EC3BF0000E086E330E096E0C
:10777400000E0A6E000E8FEC39F087D700EF00F090
:10778400110E166E000E176E9AD0250E1C18D8B462
:1077940009D00DC0D9FF0EC0DAFF1CC0DFFF0D4AAF
:1077A4000E2A8DD0000E186E04D097D015D087D035
:1077B40013D00FC0F6FF10C0F7FF0F4A102A0800BD
:1077C400F5CF1CF01C50000AD8B487D0640AD8B492
:1077D40003D00D0AD8A473D016C0D9FF17C0DAFF9E
:1077E400DECF1AF0DDCF1BF0020E1626000E172294
:1077F4001BAE07D0030E18121A6C1B1ED8B01B2A1E
:1078040000D0010E1C6E050E1C18D8B416D001D081
:1078140014D01C50020DEF0EF324F66E7F0EF420EC
:10782400F76E0900F5501A5C0900F5501B58D8A0F2
:1078340004D001D002D01C2AE6D718C015F0030EDC
:107844001516D8B409D00DC0D9FF0EC0DAFF2D0E1D
:10785400DF6E0D4A0E2A00D01CC019F02AD0195030
:10786400020DEF0EF324F66E7F0EF420F76E09007E
:10787400F5CF03F00A00F5CF04F01AC001F01BC0E5
:1078840002F026EC39F001C008F002C009F0000E45
:107894000B6E0A0E0A6ED4EC38F00850300F1C6ED2
:1078A4000DC0D9FF0EC0DAFF1CC0DFFF0D4A0E2A3F
:1078B40000D019061928D8B402D0D1D700D00FC0EF
:1078C400F6FF10C0F7FF0F4A102A0800F5CF1CF08E
:1078D4001C50D8B402D059D700D00DC0D9FF0EC067
:1078E400DAFF000EDF6E00D012000000000000007E
:1078F4000000000000000000000000000000000084
:107904000000000000000000000000000000000073
:107914000000000000000000000000000000000063
:107924000000000000000000000000000000000053
:107934000000000000000000000000000000000043
:107944000000000000000000000000000000000033
:107954000000000000000000000000000000000023
:107964000000000000000000000000000000000013
:10797400000000000000000000808080C0C0C0C083
:10798400C0C0C0C0C08080800000000000000000B3
:1079940000000000000000000000000000000000E3
:1079A40000000000000000000000000000000000D3
:1079B40000000000000000000000000000000000C3
:1079C40000000000000000000000000000000000B3
:1079D40000000000000000000000000000000000A3
:1079E4000000000000000000000000000000000093
:1079F40080E0F0F8FCFEFE7F7F7F3F3F3F3F3F7F0C
:107A04007F7F7F7F7FFFFFFFFFFFFEFEFCF8F0E03C
:107A1400C0000000000000000000008080000000A2
:107A24000000000000000000000000000000000052
:107A34000000000000000000000000000000000042
:107A44000000000000000000000000000000000032
:107A540000000000808000000000000000000080A2
:107A64008000000000000000000000000000E0E7CB
:107A7400E7E3C3C2C2800000000000008080808071
:107A84000000000001010101010101010181818166
:107A940083D3F00000000008FEFF070303031F1E4A
:107AA4001C0001073FFEF0F8FF1F03000000FFFF6A
:107AB40003030387FFFE7C0000FFFFFF83838387AC
:107AC400FFFE000000FFFFFF838383838303000026
:107AD4003C7EFFE3C383071F1E0000003E7FF7C305
:107AE400C3831F1F1C0001000000000000001FFFD3
:107AF400FFFFFFFFFFFFFFFFFFFFFFFFFFFFFEFE94
:107B0400FE7E180082C6E2F0F8FCFCFCFDFCFCFCE6
:107B1400FCFC3C00000000107FFFC0C0C0C0F8782F
:107B2400380000000001FFFF000000000000FFFF1C
:107B3400030303030301000000FFFFFF03030F7FA0
:107B4400FDE0000000FFFFFFC1C1C1C1C1C00000D2
:107B540038F8F8C1C3C3E7FE7C00000078F8E0C140
:107B6400C3C7FFFE7C00000000000000000000000E
:107B740003070F0F2F6F6FEFEFEFE7E7E7E3E3E1A3
:107B8400E0E0E0E3E3E3E3E3E3E36363230303032A
:107B9400030000000000000020200101312130001A
:107BA400002020000020210100000000000001212D
:107BB400006020000000003000010101001000708E
:107BC4000101000000010101010101312131000026
:107BD400000000012121110030201000500070012C
:107BE40011411040000000000000000000000000EF
:107BF4000000000000000000000101010303030372
:107C0400030303030301010100000000000000005E
:107C14000000000000000000000000000000000060
:107C24000000000000000000000000000000000050
:107C34000000000000000000000000000000000040
:107C44000000000000000000000000000000000030
:107C54000000000000000000000000000000000020
:107C64000000000000000000000000000000000010
:107C74000000000000000000000000000000000000
:107C840000000000000000000000000000000000F0
:107C940000000000000000000000000000000000E0
:107CA40000000000000000000000000000000000D0
:107CB40000000000000000000000000000000000C0
:107CC40000000000000000000000000000000000B0
:107CD40000000000000000000000000000000000A0
:107CE4000000000000000000000000000000000090
:107CF40000000000005F0000000000000007000713
:107D040000000000147F147F14000000242A7F2A3E
:107D14001200000023130864620000003649552253
:107D24005000000000050300000000001C22410078
:107D34000000000041221C0000000000082A1C2A48
:107D44000800000008083E0808000000A0600000C9
:107D54000000000008080808080000006060000037
:107D64000000000020100804020000003E514945B4
:107D74003E00000000427F4000000000625149497B
:107D84004600000022414949360000001814127FC1
:107D94001000000027454545390000003C4A494988
:107DA400300000000171090503000000364949490B
:107DB40036000000064949291E000000003636003E
:107DC4000000000000AC6C00000000000814224118
:107DD40000000000141414141400000041221408BC
:107DE40000000000020151090600000032497941F7
:107DF4003E0000007E0909097E0000007F494949D0
:107E0400360000003E414141220000007F414122F2
:107E14001C0000007F494949410000007F0909090D
:107E2400010000003E414151720000007F08080833
:107E34007F000000417F4100000000002040413FDE
:107E4400010000007F081422410000007F404040F0
:107E5400400000007F020C027F0000007F04081035
:107E64007F0000003E4141413E0000007F090909B6
:107E7400060000003E4151215E0000007F091929DF
:107E840046000000264949493200000001017F01F3
:107E9400010000003F4040403F0000001F20402000
:107EA4001F0000003F4038403F00000063140814E6
:107EB4006300000003047804030000006151494595
:107EC400430000007F41410000000000020408104C
:107ED4002000000041417F00000000000402010274
:107EE4000400000080808080800000000102040003
:107EF4000000000020545454780000007F4844449B
:107F04003800000038444428000000003844444845
:107F14007F0000003854545418000000087E090201
:107F24000000000018A4A4A47C0000007F0804043E
:107F340078000000007D00000000000080847D00C7
:107F4400000000007F10284400000000417F400032
:107F5400000000007C041804780000007C08047C05
:107F6400000000003844443800000000FC242418B9
:107F740000000000182424FC00000000007C080419
:107F8400000000004854542400000000047F440012
:107F9400000000003C40407C000000001C20402009
:107FA4001C0000003C4030403C00000044281028E5
:107FB400440000001CA0A07C000000004464544C59
:107FC400440000000836410000000000007F00006B
:107FD4000000000041360800000000000201010218
:107FE400010000000205050200000001000A00640F
:0C7FF40000E803102725642E256400001F
:020000040020DA
:08000000FFFFFFFFFFFFFFFF00
:020000040030CA
:0E00000000001F1EFF8181FF0FC00FE00F40A8
:00000001FF
