:020000040000FA
:04000000A1EF3FF03D
:107F42000001C2EF3FF0016E01C0C9FF1200046ED2
:107F5200949E9380939204B002D0C79E01D0C78EA4
:107F620001B002D0C79C01D0C78C02B002D0C69823
:107F720001D0C688C6500318F00B0318C66EC68A15
:107F820012009596000E016E000E026E000E036E38
:107F9200000EA8EC3FF00D0E056EFC0EE82EFED78B
:107FA200052EFCD78C96A60EA4EC3FF0100E066EA2
:107FB200390E056E0E0EE82EFED7052EFCD7062EC4
:107FC200FAD7020EA4EC3FF0100E066E390E056EC3
:107FD2000E0EE82EFED7052EFCD7062EFAD78C867B
:107FE200100E066E390E056E0E0EE82EFED7052E09
:0E7FF200FCD7062EFAD7D4EF3FF000EF00F0D8
:020000040020DA
:08000000FFFFFFFFFFFFFFFF00
:020000040030CA
:0E00000000001F1EFF8181FF0FC00FE00F40A8
:00000001FF
