:0400000047EF3FF097
:107E8A00C2821200000188EF3FF0C2A202D0010EA6
:107E9A0002D0000E00D01200C450036EC350016E0F
:107EAA0003C002F000D01200056E000EC26E000E72
:107EBA00C06ED89001303C0BC26E01C003F0033A89
:107ECA00F00E0316300E031602500F0B0310C16E8C
:107EDA0005C003F0D8900336D8900336380E03163F
:107EEA0005C004F0043A0F0E0416070E04160550D6
:107EFA00800B04100310C06E01AE03D09E9C9D8CB3
:107F0A00F28CC2801200E00E956E040E016EFD0E18
:107F1A00026EC50E59EC3FF000D0000E076E010E3E
:107F2A00076401D021D007C006F006460646C250B3
:107F3A000618C30B0618C26E45EC3FF000D04AEC97
:107F4A003FF00009D8A4FBD751EC3FF00750020DCF
:107F5A00080EF324D96E000EF420DA6E01C0DEFF9B
:107F6A0002C0DDFF072ADBD709BE0AD009BE06D048
:107F7A00E00E085C010E0958D8B002D08C8002D0FD
:107F8A008C9000D009BE0ED0120E085C020E095861
:107F9A00D8A008D009BE04D0040E095CD8B002D01B
:107FAA008C8202D08C9200D00BBE0AD00BBE06D0B7
:107FBA00E00E0A5C010E0B58D8B002D08C8402D0B5
:107FCA008C9400D00BBE0ED0120E0A5C020E0B5817
:107FDA00D8A008D00BBE04D0040E0B5CD8B002D0D7
:107FEA008C8601D08C9680A402D08C9896D78C88E7
:067FFA0094D700EF00F037
:020000040020DA
:08000000FFFFFFFFFFFFFFFF00
:020000040030CA
:0E00000000001F1EFF8181FF0FC00FE00F40A8
:00000001FF
