:04000000EFEF3AF0F4
:1075D40077EC3BF0FFD700EF00F0000EF86E0001EF
:1075E400EAEF3AF0046E03C001F0045004EC3BF0FF
:1075F400120000D0C5CF01F01F0E0116D8B4C7B4D5
:10760400F9D71200026E3F0EC716000EC66E000EAA
:10761400C56E0250C6120150C71293829380C68A67
:107624001200046EC58000D0C5B0FED7780E9DEC64
:107634003BF004509DEC3BF003509DEC3BF0C584C3
:1076440000D0C5B4FED71200016E000E026E0AD03F
:10765400000E036E630E036401D002D0032AFAD72E
:10766400022A00D00150025CD8A0F2D71200000E0A
:10767400096E070E096401D014D009C005F0000E8C
:1076840054EC3BF0000E086E830E086401D007D062
:10769400000E036E400E13EC3BF0082AF5D7092ABE
:1076A400E8D71200076E0550B00F036E800E13EC7E
:1076B4003BF00750080DF3CF06F00F0E0616062810
:1076C400036E800E13EC3BF00750080D040E066E9B
:1076D400F434F432F332062EFBD7F3500F0B100FB1
:1076E400036E800E13EC3BF01200000E036E080EC6
:1076F400F4EC3AF0C9EC3BF0FA0E00F0E82EFDD7BA
:1077040039EC3BF0000E086ECC0E096E7F0E0A6E4B
:10771400000E04EC3CF0000E146E130E146401D041
:1077240009D0820E136EDE0EE82EFED7132EFCD780
:10773400142AF3D71200026E02C0C9FFC6BE26D0B7
:1077440001D024D0C6500F0B080AD8B40DD0C650AF
:107754000F0B0B0AD8B408D0C68800D09EA6FED75B
:10776400C7B414D0C75012D0C6500F0B080AD8B4EF
:1077740007D0C6500F0B0B0AD8B402D007D000D0E4
:10778400C7B0FED7FBEC3AF0C55000D01200AE0EE5
:10779400036E800E13EC3BF02E0E036E800E13EC82
:1077A4003BF0A40E036E800E13EC3BF0200E036E30
:1077B400800E13EC3BF0020E036E800E13EC3BF0D4
:1077C400A10E036E800E13EC3BF0C80E036E800E08
:1077D40013EC3BF0A60E036E800E13EC3BF0810E0F
:1077E400036E800E13EC3BF0FF0E036E800E13EC61
:1077F4003BF0AF0E036E800E13EC3BF0140E26EC40
:107804003BF01200116E08C005F0115054EC3BF02F
:1078140048D0000E126E070E126401D033D01250FD
:10782400010D000E0B6EFF0E0C6E09C0F6FF0AC0B0
:10783400F7FF0800F5500D6E0E6AD8900D360E361F
:10784400D8900D360E36D8900D360E360B500D26C8
:107854000C500E22BB0E0F6E7C0E106E0D500F26B8
:107864000E501022F3500F26F45010220FC0F6FFD2
:1078740010C0F7FF0800F5CF03F0400E13EC3BF007
:10788400122AC9D7094A0A2A112A0F0E116409D0EB
:10789400082A000E116E08C005F0115054EC3BF09C
:1078A40000D009C0F6FF0AC0F7FF0800F550000930
:1078B400D8A4AFD7120000000000000000000000B0
:1078C40000000000000000000000000000000000B4
:1078D40000000000000000000000000000000000A4
:1078E4000000000000000000000000000000000094
:1078F4000000000000000000000000000000000084
:107904000000000000000000000000000000000073
:107914000000000000000000000000000000000063
:107924000000000000000000000000000000000053
:107934000000000000000000000000000000000043
:107944000000000000808080C0C0C0C0C0C0C0C0B3
:10795400C0808080000000000000000000000000E3
:107964000000000000000000000000000000000013
:107974000000000000000000000000000000000003
:1079840000000000000000000000000000000000F3
:1079940000000000000000000000000000000000E3
:1079A40000000000000000000000000000000000D3
:1079B40000000000000000000000000080E0F0F87B
:1079C400FCFEFE7F7F7F3F3F3F3F3F7F7F7F7F7F88
:1079D4007FFFFFFFFFFFFEFEFCF8F0E0C0000000A9
:1079E4000000000000000080800000000000000093
:1079F4000000000000000000000000000000000083
:107A04000000000000000000000000000000000072
:107A14000000000000000000000000000000000062
:107A24008080000000000000000000808000000052
:107A340000000000000000000000E0E7E7E3C3C22C
:107A4400C2800000000000008080808000000000F0
:107A540001010101010101010181818183D3F00050
:107A640000000008FEFF070303031F1E1C0001079C
:107A74003FFEF0F8FF1F03000000FFFF030303872E
:107A8400FFFE7C0000FFFFFF83838387FFFE00006F
:107A940000FFFFFF83838383830300003C7EFFE3B7
:107AA400C383071F1E0000003E7FF7C3C3831F1F4D
:107AB4001C0001000000000000001FFFFFFFFFFF8B
:107AC400FFFFFFFFFFFFFFFFFFFFFEFEFE7E18002C
:107AD40082C6E2F0F8FCFCFCFDFCFCFCFCFC3C0077
:107AE400000000107FFFC0C0C0C0F878380000005C
:107AF4000001FFFF000000000000FFFF0303030379
:107B04000301000000FFFFFF03030F7FFDE00000FF
:107B140000FFFFFFC1C1C1C1C1C0000038F8F8C1F6
:107B2400C3C3E7FE7C00000078F8E0C1C3C7FFFED2
:107B34007C000000000000000000000003070F0F9D
:107B44002F6F6FEFEFEFE7E7E7E3E3E1E0E0E0E378
:107B5400E3E3E3E3E3E363632303030303000000DA
:107B6400000000002020010131213000002020000D
:107B7400002021010000000000000121006020001D
:107B8400000000300001010100100070010100003C
:107B94000001010101010131213100000000000157
:107BA40021211100302010005000700111411040BB
:107BB40000000000000000000000000000000000C1
:107BC4000000000000010101030303030303030396
:107BD400030101010000000000000000000000009B
:107BE4000000000000000000000000000000000091
:107BF4000000000000000000000000000000000081
:107C04000000000000000000000000000000000070
:107C14000000000000000000000000000000000060
:107C24000000000000000000000000000000000050
:107C34000000000000000000000000000000000040
:107C44000000000000000000000000000000000030
:107C54000000000000000000000000000000000020
:107C64000000000000000000000000000000000010
:107C74000000000000000000000000000000000000
:107C840000000000000000000000000000000000F0
:107C940000000000000000000000000000000000E0
:107CA40000000000000000000000000000000000D0
:107CB40000000000000000000000000000000000C0
:107CC400005F000000000000000700070000000043
:107CD400147F147F14000000242A7F2A120000005D
:107CE4002313086462000000364955225000000046
:107CF40000050300000000001C22410000000000F9
:107D040041221C0000000000082A1C2A0800000070
:107D140008083E0808000000A06000000000000001
:107D24000808080808000000606000000000000067
:107D340020100804020000003E5149453E000000A6
:107D440000427F40000000006251494946000000A3
:107D540022414949360000001814127F1000000027
:107D640027454545390000003C4A49493000000098
:107D74000171090503000000364949493600000035
:107D8400064949291E0000000036360000000000A4
:107D940000AC6C0000000000081422410000000048
:107DA40014141414140000004122140800000000EC
:107DB4000201510906000000324979413E000000E9
:107DC4007E0909097E0000007F4949493600000008
:107DD4003E414141220000007F4141221C0000003D
:107DE4007F494949410000007F0909090100000059
:107DF4003E414151720000007F0808087F000000E6
:107E0400417F4100000000002040413F010000008C
:107E14007F081422410000007F40404040000000E1
:107E24007F020C027F0000007F0408107F00000026
:107E34003E4141413E0000007F090909060000005F
:107E44003E4151215E0000007F09192946000000CF
:107E5400264949493200000001017F010100000068
:107E64003F4040403F0000001F2040201F00000012
:107E74003F4038403F0000006314081463000000D2
:107E840003047804030000006151494543000000E5
:107E94007F4141000000000002040810200000009F
:107EA40041417F00000000000402010204000000C0
:107EB4008080808080000000010204000000000037
:107EC40020545454780000007F4844443800000093
:107ED4003844442800000000384444487F0000002F
:107EE4003854545418000000087E090200000000B1
:107EF40018A4A4A47C0000007F08040478000000F7
:107F0400007D00000000000080847D00000000006F
:107F14007F10284400000000417F40000000000062
:107F24007C041804780000007C08047C0000000035
:107F34003844443800000000FC24241800000000E9
:107F4400182424FC00000000007C08040000000049
:107F54004854542400000000047F44000000000042
:107F64003C40407C000000001C2040201C0000001D
:107F74003C4030403C0000004428102844000000ED
:107F84001CA0A07C000000004464544C4400000089
:107F94000836410000000000007F000000000000DF
:107FA4004136080000000000020101020100000047
:107FB40002050502000000446973706C6179204C6D
:107FC400434420323078340050524F544F434F4C86
:107FD4004F2049324300484F4C41204120544F44E4
:107FE4004F5300454C454354524F4E494341005072
:0C7FF40049433138463435353000000078
:020000040020DA
:08000000FFFFFFFFFFFFFFFF00
:020000040030CA
:0E00000000001F1EFF8181FF0FC00FE00F40A8
:00000001FF
