:040000000CEF00F011
:10000800FACF01F0FBCF02F0E9CF03F0F8ED00F0F2
:100018003BEF03F01EC024F01FC025F020C026F0DF
:1000280021C027F000D024C00FF025C010F026C052
:1000380011F027C012F022C013F023C014F0000EF4
:1000480014BEFF0E156E166EA6EC01F00FC024F05C
:1000580010C025F011C026F012C027F01C4A1D2A36
:100068002450251026102710D8A4DDD71CC0D9FF8E
:100078001DC0DAFF000EDF6E1C06D8A01D0600D0DA
:100088001EC00FF01FC010F020C011F021C012F0E8
:1000980022C013F023C014F0000E14BEFF0E156E1C
:1000A800166E27EC02F00F50286E1EC00FF01FC00E
:1000B80010F020C011F021C012F022C013F023C0AC
:1000C80014F0000E14BEFF0E156E166EA6EC01F0AD
:1000D8000FC01EF010C01FF011C020F012C021F098
:1000E800090E286402D0070E2826300E28261CC0C8
:1000F800D9FF1DC0DAFF28C0DFFF1C06D8A01D06E7
:100108001E501F1020102110D8A4BAD712001F6E3D
:1001180016C013F01F50B6EC02F052D0000E206E3D
:10012800070E206401D03DD02050010D000E196E3D
:10013800FF0E1A6E17C0F6FF18C0F7FFF86A070E11
:10014800F76403D00800F55005D0F6CFE9FFF7CFE4
:10015800EAFFEF501B6E1C6AD8901B361C36D890ED
:100168001B361C36D8901B361C3619501B261A50C5
:100178001C22FB0E1D6E7C0E1E6E1B501D261C5075
:100188001E22F3501D26F4501E221DC0F6FF1EC06D
:10019800F7FF0800F5CF11F0400E07EC03F0202A16
:1001A800BFD7174A182A1F2A0F0E1F6409D0162A0C
:1001B800000E1F6E16C013F01F50B6EC02F000D0F0
:1001C80017C0F6FF18C0F7FFF86A070EF76403D0E8
:1001D8000800F55005D0F6CFE9FFF7CFEAFFEF505A
:1001E8000009D8A49BD712000600EACF04F0E1CF9B
:1001F80005F0E2CF06F0D9CF07F0DACF08F0F3CF59
:1002080009F0F4CF0AF0F6CF0BF0F7CF0CF0F8CFE7
:100218000DF0F5CF0EF0F2A407D08B70000ED76E5C
:10022800FC0ED66EF29400D09EA41AD03D50D8A4ED
:100238000AD0000E3C6EBECF38F0BFCF39F0040EA6
:10024800BD6E010E09D0BECF36F0BFCF37F0050E18
:10025800BD6E010E3C6E000E3D6E00D09E9400D027
:100268000EC0F5FF0DC0F8FF0CC0F7FF0BC0F6FF7E
:100278000AC0F4FF09C0F3FF08C0DAFF07C0D9FFBE
:1002880006C0E2FF05C0E1FF04C0EAFF03C0E9FFC2
:1002980002C0FBFF01C0FAFF1100000E116E080E2C
:1002A8004FEC03F0ECEC01F0D9EC02F056EC03F063
:1002B8001AEC03F000D03C04D8A4FDD738C033F0C2
:1002C80039C034F0331E341E334A342A36503324AE
:1002D8003A6E375034203B6ED9EC02F03E0E296E50
:1002E800000E2A6E3AC02BF03BC02CF02D6A2E6A05
:1002F800000E306E0A0E2F6E8BEC02F0000E166E9A
:100308003E0E176E000E186E000E8BEC00F0000EFD
:10031800166EFB0E176E7F0E186E060E8BEC00F035
:10032800000E356E040E356401D0C5D7820E336ECB
:10033800DE0EE82EFED7332EFCD7352AF3D7BBD7EF
:100348000CEF00F0000E176E000E186E000E196EFE
:10035800000E1A6E1350141015101610D8B42FD0A2
:10036800010E1B6E07D0D890133614361536163684
:100378001B2A00D016BE02D0F6D700D0D890173668
:10038800183619361A3613500F5C14501058155079
:10039800115816501258D8A00AD013500F5E145096
:1003A800105A1550115A1650125A178000D0D8906A
:1003B80016321532143213321B2EE0D700D017C074
:1003C8000FF018C010F019C011F01AC012F0120086
:1003D800AE0E116E800E07EC03F02E0E116E800E1D
:1003E80007EC03F0A40E116E800E07EC03F0200E4C
:1003F800116E800E07EC03F0020E116E800E07ECF2
:1004080003F0A10E116E800E07EC03F0C80E116EFA
:10041800800E07EC03F0A60E116E800E07EC03F0B9
:10042800810E116E800E07EC03F0FF0E116E800E28
:1004380007EC03F0AF0E116E800E07EC03F0140EFC
:10044800F4EC02F012001350141015101610D8B462
:1004580029D0010E176E07D0D890133614361536EA
:100468001636172A00D016BE02D0F6D700D0135081
:100478000F5C145010581550115816501258D8A027
:1004880009D013500F5E1450105A1550115A1650B7
:10049800125A00D0D8901632153214321332172E51
:1004A800E6D700D00FC00FF010C010F011C011F047
:1004B80012C012F01200106E10C0C9FFC6BE26D0BE
:1004C80001D024D0C6500F0B080AD8B40DD0C6509E
:1004D8000F0B0B0AD8B408D0C68800D09EA6FED74A
:1004E800C7B414D0C75012D0C6500F0B080AD8B4DE
:1004F80007D0C6500F0B0B0AD8B402D007D000D0D3
:10050800C7B0FED746EC03F0C55000D0120029C092
:1005180031F02AC032F02EAE11D029C0D9FF2AC03E
:10052800DAFF2D0EDF6E294A2A2A2E1E2D1E2C1EBA
:100538002B6C000E2C222D222E2200D029C01CF05C
:100548002AC01DF02BC01EF02CC01FF02DC020F0BB
:100558002EC021F02FC022F030C023F00EEC00F0A6
:1005680000D01200156E1350B00F116E800E07ECFC
:1005780003F01550080DF3CF14F00F0E14161428BD
:10058800116E800E07EC03F01550080D040E146E62
:10059800F434F432F332142EFBD7F3500F0B100F50
:1005A800116E800E07EC03F01200000E176E070E96
:1005B800176401D014D017C013F0000EB6EC02F087
:1005C800000E166E830E166401D007D0000E116E51
:1005D800400E07EC03F0162AF5D7172AE8D71200C1
:1005E8000F6E000E106E0AD0000E116E630E1164AD
:1005F80001D002D0112AFAD7102A00D00F50105C6F
:10060800D8A0F2D71200126EC58000D0C5B0FED7B0
:10061800780E5FEC02F012505FEC02F011505FECC4
:1006280002F0C58400D0C5B4FED71200470ED56EBF
:10063800F28EF28A9D84F2949E90000ED76EFC0E84
:10064800D66E000ECF6E000ECE6ED58ECD80120007
:10065800106E3F0EC716000EC66E000EC56E105007
:10066800C6120F50C71293829380C68A120000EEFA
:1006780036F0100EEE6AE806FDE1000EF86E000195
:1006880051EF01F000D0C5CF0FF01F0E0F16D8B4F0
:10069800C7B4F9D71200126E11C00FF012502CEC2B
:1006A80003F01200948494909E94050EBD6E12007F
:1078FA00000000000000000000000000000000007E
:10790A00000000000000000000000000000000006D
:10791A00000000000000000000000000000000005D
:10792A00000000000000000000000000000000004D
:10793A00000000000000000000000000000000003D
:10794A00000000000000000000000000000000002D
:10795A00000000000000000000000000000000001D
:10796A00000000000000000000000000000000000D
:10797A00000000000000000000000000000000807D
:10798A008080C0C0C0C0C0C0C0C0C08080800000AD
:10799A0000000000000000000000000000000000DD
:1079AA0000000000000000000000000000000000CD
:1079BA0000000000000000000000000000000000BD
:1079CA0000000000000000000000000000000000AD
:1079DA00000000000000000000000000000000009D
:1079EA00000000000000000000000000000000008D
:1079FA0000000000000080E0F0F8FCFEFE7F7F7FC0
:107A0A003F3F3F3F3F7F7F7F7F7F7FFFFFFFFFFF3C
:107A1A00FEFEFCF8F0E0C0000000000000000000DC
:107A2A00008080000000000000000000000000004C
:107A3A00000000000000000000000000000000003C
:107A4A00000000000000000000000000000000002C
:107A5A00000000000000000000008080000000001C
:107A6A00000000000080800000000000000000000C
:107A7A0000000000E0E7E7E3C3C2C28000000000A4
:107A8A0000008080808000000000010101010101E6
:107A9A0001010181818183D3F00000000008FEFF0B
:107AAA00070303031F1E1C0001073FFEF0F8FF1F18
:107ABA0003000000FFFF03030387FFFE7C0000FFB3
:107ACA00FFFF83838387FFFE000000FFFFFF83839E
:107ADA008383830300003C7EFFE3C383071F1E00EA
:107AEA0000003E7FF7C3C3831F1F1C000100000074
:107AFA00000000001FFFFFFFFFFFFFFFFFFFFFFF68
:107B0A00FFFFFFFFFEFEFE7E180082C6E2F0F8FCD1
:107B1A00FCFCFDFCFCFCFCFC3C00000000107FFFB0
:107B2A00C0C0C0C0F878380000000001FFFF0000A4
:107B3A0000000000FFFF030303030301000000FF2E
:107B4A00FFFF03030F7FFDE0000000FFFFFFC1C13D
:107B5A00C1C1C1C0000038F8F8C1C3C3E7FE7C0048
:107B6A00000078F8E0C1C3C7FFFE7C0000000000F7
:107B7A0000000000000003070F0F2F6F6FEFEFEFF9
:107B8A00E7E7E7E3E3E1E0E0E0E3E3E3E3E3E3E3BA
:107B9A0063632303030303000000000000002020A6
:107BAA0001013121300000202000002021010000C5
:107BBA0000000000012100602000000000300001E8
:107BCA000101001000700101000000010101010122
:107BDA000131213100000000000121211100302073
:107BEA001000500070011141104000000000000018
:107BFA00000000000000000000000000000000017A
:107C0A00010103030303030303030301010100004A
:107C1A00000000000000000000000000000000005A
:107C2A00000000000000000000000000000000004A
:107C3A00000000000000000000000000000000003A
:107C4A00000000000000000000000000000000002A
:107C5A00000000000000000000000000000000001A
:107C6A00000000000000000000000000000000000A
:107C7A0000000000000000000000000000000000FA
:107C8A0000000000000000000000000000000000EA
:107C9A0000000000000000000000000000000000DA
:107CAA0000000000000000000000000000000000CA
:107CBA0000000000000000000000000000000000BA
:107CCA0000000000000000000000000000000000AA
:107CDA00000000000000000000000000000000009A
:107CEA00000000000000000000000000000000008A
:107CFA0000000000000000000000005F000000001B
:107D0A0000000007000700000000147F147F140021
:107D1A000000242A7F2A120000002313086462004C
:107D2A0000003649552250000000000503000000FB
:107D3A0000001C2241000000000041221C0000003B
:107D4A000000082A1C2A0800000008083E0808004B
:107D5A000000A060000000000000080808080800F1
:107D6A00000060600000000000002010080402000B
:107D7A0000003E5149453E00000000427F4000009D
:107D8A000000625149494600000022414949360033
:107D9A0000001814127F10000000274545453900DD
:107DAA0000003C4A494930000000017109050300FE
:107DBA0000003649494936000000064949291E0093
:107DCA000000003636000000000000AC6C00000025
:107DDA0000000814224100000000141414141400B6
:107DEA0000004122140800000000020151090600A7
:107DFA000000324979413E0000007E0909097E00EF
:107E0A0000007F494949360000003E4141412200B5
:107E1A0000007F4141221C0000007F49494941007E
:107E2A0000007F090909010000003E41415172002A
:107E3A0000007F0808087F000000417F4100000021
:107E4A0000002040413F010000007F081422410049
:107E5A0000007F404040400000007F020C027F008B
:107E6A0000007F0408107F0000003E4141413E00AF
:107E7A0000007F090909060000003E4151215E0009
:107E8A0000007F09192946000000264949493200A5
:107E9A00000001017F01010000003F4040403F0017
:107EAA0000001F2040201F0000003F4038403F00D4
:107EBA00000063140814630000000304780403003C
:107ECA00000061514945430000007F414100000024
:107EDA000000020408102000000041417F00000059
:107EEA0000000402010204000000808080808000FB
:107EFA0000000102040000000000205454547800DD
:107F0A0000007F48444438000000384444280000F8
:107F1A000000384444487F00000038545454180084
:107F2A000000087E09020000000018A4A4A47C0036
:107F3A0000007F08040478000000007D00000000B3
:107F4A00000080847D00000000007F1028440000AB
:107F5A000000417F4000000000007C041804780003
:107F6A0000007C08047C000000003844443800000B
:107F7A000000FC24241800000000182424FC00003F
:107F8A000000007C0804000000004854542400004B
:107F9A000000047F4400000000003C40407C0000D8
:107FAA0000001C2040201C0000003C4030403C00E7
:107FBA00000044281028440000001CA0A07C0000F7
:107FCA0000004464544C440000000836410000009C
:107FDA000000007F00000000000041360800000099
:107FEA000000020101020100000002050502000072
:067FFA0000757300000099
:020000040020DA
:08000000FFFFFFFFFFFFFFFF00
:020000040030CA
:0E00000000001F1EFF8181FF0FC00FE00F40A8
:00000001FF
